:020000040202F6
:10800000000000001D800202DFF80CD000F01AF81A
:10801000004800472D8002021C54002002B5EFF3F7
:10802000088181F30988054800470000044880471B
:10803000EFF3098181F3088802BD00004580020248
:10804000F98D0202064C074D06E0E06840F001039E
:1080500094E8070098471034AC42F6D3FFF7D8FFF6
:10806000889A0202989A020240EA01039B0703D011
:1080700009E008C9121F08C0042AFAD203E011F867
:10808000013B00F8013B521EF9D2704780B586B023
:10809000DDF820C08DF813000391029201939DF842
:1080A00013007F2812D1FFE7029946F24000C4F284
:1080B000000000EB81009DF804209DF820304FF077
:1080C000FF3101F017F90020059024E003989DF896
:1080D000131001F079F800900098B0F1FF3F03DC35
:1080E000FFE70098059016E0029946F24000C4F2BE
:1080F000000000EB810000999DF804209DF82030DD
:1081000001F0F8F89DF813009DF80C1000F00AF942
:1081100000200590FFE7059806B080BDB0B584B09B
:1081200094468E4604460A980999089A8DF80B40A1
:108130008DF80AE08DF809C08DF808308DF8072019
:108140008DF806108DF805009DF80A009DF80B10BB
:1081500001EB410C49F21C61C0F2022111F81C1024
:1081600049F21062C0F2022212F81C2049F20463A4
:10817000C0F2022313F81C30EC46CCF80030052383
:10818000FFF784FF20B1FFE74FF0FF300390C5E019
:108190009DF809009DF80B1001EB410C49F21C61A0
:1081A000C0F2022101EB4C01497849F21062C0F2A1
:1081B000022202EB4C02527849F20463C0F202231D
:1081C00003EB4C035B78EC46CCF800300523FFF75B
:1081D0005DFF20B1FFE76FF0010003909EE09DF886
:1081E00008009DF80B1001EB410C49F21C61C0F234
:1081F000022101EB4C01897849F21062C0F202229F
:1082000002EB4C02927849F20463C0F2022303EBC2
:108210004C039B78EC46CCF800300523FFF736FF83
:1082200020B1FFE76FF00200039077E09DF80700B0
:108230009DF80B1001EB410C49F21C61C0F20221C8
:1082400001EB4C01C97849F21062C0F2022202EB44
:108250004C02D27849F20463C0F2022303EB4C03D0
:10826000DB78EC46CCF800300523FFF70FFF20B198
:10827000FFE76FF00300039050E09DF806009DF8C3
:108280000B1001EB410C49F21C61C0F2022101EB21
:108290004C01097949F21062C0F2022202EB4C0251
:1082A000127949F20463C0F2022303EB4C031B79F9
:1082B000EC46CCF800300523FFF7E8FE20B1FFE7DD
:1082C0006FF00400039029E09DF805009DF80B1065
:1082D00001EB410C49F21C61C0F2022101EB4C019F
:1082E000497949F21062C0F2022202EB4C02527943
:1082F00049F20463C0F2022303EB4C035B79EC46C2
:10830000CCF800300523FFF7C1FE20B1FFE76FF086
:108310000500039002E000200390FFE7039804B0FB
:10832000B0BD000080B584B08DF80B008DF80A1048
:108330009DF80B009DF80A1001F0BCF8019001981F
:10834000B0F1FF3F03DCFFE701980390BAE09DF82E
:108350000B00112812DCFFE79DF80B2046F200000D
:10836000C4F20000104320F00300019902F0030260
:10837000C2EBC203072200F0BDFFA0E09DF80B0096
:10838000142810DCFFE701999DF80B206FF0150011
:1083900000EB4200C3B246F21000C4F20000022219
:1083A00000F0A8FF8AE09DF80B0015280AD1FFE72E
:1083B000019946F21000C4F200000722142300F0D5
:1083C00099FF7AE09DF80B0016280AD1FFE7019982
:1083D00046F21400C4F200000722002300F08AFFD6
:1083E0006AE09DF80B001E2810DCFFE701999DF85C
:1083F0000B206FF0260000EB4200C3B246F21400DF
:10840000C4F20000022200F075FF54E09DF80B005A
:108410001F280AD1FFE7019946F21400C4F20000B8
:108420000722172300F066FF44E09DF80B00202888
:108430000AD1FFE7019946F21400C4F200000222BB
:108440001E2300F057FF34E09DF80B0021280AD1CD
:10845000FFE7019946F21800C4F20000022200234F
:1084600000F048FF24E09DF80B0023280FDCFFE715
:1084700001999DF80B00C0EBC000EC38C3B246F286
:108480001800C4F20000072200F034FF0FE0019949
:108490009DF80B206FF0370000EB4200C3B246F2AC
:1084A0001800C4F20000022200F024FFFFE7FFE7FB
:1084B000FFE7FFE7FFE7FFE7FFE7FFE7FFE7002052
:1084C0000390FFE7039804B080BD000080B582B040
:1084D0008DF807009DF80700012100F025F802B093
:1084E00080BD000080B582B0019000208DF80300AF
:1084F000FFE79DF80300182813DCFFE701989DF8BB
:108500000310C840C00728B1FFE79DF80300FFF73C
:10851000DDFFFFE7FFE79DF8030001308DF8030062
:10852000E7E702B080BD000080B586B08DF8170087
:108530008DF816109DF8170001460491182800F2D6
:10854000B3810499DFE811F019002A003B004C00C8
:108550005D006E007F009000A100B200CA00E30041
:10856000F4000D011E012F014001510162016B0158
:1085700074017D0186019701A7019DF816100C205A
:10858000C4F20000152200F09BFE9DF81610142086
:10859000C4F20000122200F093FE86E19DF816104E
:1085A0000C20C4F20000162200F08AFE9DF816107E
:1085B0001420C4F20000122200F082FE75E19DF842
:1085C00016100C20C4F20000022200F079FE9DF883
:1085D00016101420C4F20000002200F071FE64E1C5
:1085E0009DF816100C20C4F20000032200F068FE73
:1085F0009DF816101420C4F20000012200F060FE65
:1086000053E19DF816100C20C4F20000042200F083
:1086100057FE9DF816101420C4F20000022200F04C
:108620004FFE42E19DF816100C20C4F2000001221A
:1086300000F046FE9DF816101420C4F2000011222E
:1086400000F03EFE31E19DF816100C20C4F200004F
:10865000052200F035FE9DF816101420C4F200002B
:108660000A2200F02DFE20E19DF816100C20C4F225
:108670000000082200F024FE9DF816101420C4F219
:108680000000092200F01CFE0FE19DF816100C20DE
:10869000C4F20000092200F013FE9DF816105420C9
:1086A000C4F200000C2200F00BFEFEE09DF8161054
:1086B0000C20C4F200000A2200F002FE9DF8161001
:1086C0001420C4F200000390132200F0F9FD039877
:1086D0009DF81610142200F0F3FDE6E09DF8161048
:1086E0000C20C4F200000B22019200F0E9FD019A77
:1086F0009DF816101420C4F20000029000F0E0FD76
:1087000002989DF81610102200F0DAFDCDE09DF8D9
:1087100016100C20C4F200000C2200F0D1FD9DF8D0
:1087200016100820C4F20000002200F0C9FDBCE0D1
:108730009DF816100820C4F200000C2200F0C0FDC5
:108740009DF816100C20C4F200000D2200F0B8FDB8
:108750009DF816101420C4F20000062200F0B0FDAF
:10876000A3E09DF816100C20C4F200000E2200F0C9
:10877000A7FD9DF816101420C4F20000072200F097
:108780009FFD92E09DF816100C20C4F200000F220D
:1087900000F096FD9DF816101420C4F200000C2283
:1087A00000F08EFD81E09DF816100C20C4F2000050
:1087B000102200F085FD9DF816101420C4F2000070
:1087C000082200F07DFD70E09DF816100C20C4F228
:1087D0000000112200F074FD9DF816101420C4F260
:1087E0000000042200F06CFD5FE09DF816100C20E4
:1087F000C4F20000122200F063FD9DF81610142050
:10880000C4F20000052200F05BFD4EE09DF816105A
:108810000C20C4F20000132200F052FD45E09DF848
:1088200016100C20C4F20000142200F049FD3CE0B8
:108830009DF816100C20C4F20000002200F040FD4C
:1088400033E09DF816100C20C4F20000062200F060
:1088500037FD2AE09DF816100C20C4F20000172204
:1088600000F02EFD9DF816101420C4F200000E2218
:1088700000F026FD19E09DF816108020C4F20000DB
:108880000090052200F01CFD00989DF816100722AC
:1088900000F016FD09E09DF816100C20C4F200004F
:1088A000192200F00DFD00E0FFE706B080BD0000DA
:1088B00080B584B040F2A810C4F210000068C00275
:1088C000002818D5FFE74021C4F200010191086893
:1088D000C0F345000968C1F3C5314843029000F078
:1088E00011F80199029AB0FBF2F00968C1F3C711BF
:1088F0004843039002E000200390FFE7039804B090
:1089000080BD000083B042F21000C4F21000006885
:10891000C0F300208DF807009DF8070030B1FFE795
:1089200043F20060C0F26E10029039E040F27C1019
:10893000C4F210000068C0F30430014600910F2813
:1089400028D80099DFE801F0080E26142626261AFA
:10895000262626262626262041F20020C0F27A006E
:1089600002901DE042F20040C0F2F400029017E0D5
:1089700043F20060C0F26E10029011E044F6000075
:10898000C0F2E81002900BE046F60040C0F2DC2096
:10899000029005E049F20000C0F2D0300290FFE7FB
:1089A000029803B07047000080B584B000F014FB5B
:1089B0000190019818B9FFE70120039056E0019853
:1089C000016842F20800C4F210000722042300F0FC
:1089D000B3FC00200290FFE702980F2819D8FFE7A8
:1089E0000198029900EB4100808840F2A64188423C
:1089F0000ADBFFE7029942F20000C4F210000422F1
:108A00001C2300F099FC04E0FFE70298013002907B
:108A1000E2E70298102803D3FFE70220039025E045
:108A200001200290FFE702980F2815D8FFE7019870
:108A3000029900EB4100808C40F29D41884206DBA8
:108A4000FFE702980138C0B200F014F804E0FFE735
:108A5000029801300290E6E70298102803D3FFE75E
:108A60000320039002E000200390FFE7039804B086
:108A700080BD000080B582B08DF807009DF807002A
:108A800000F00F0142F20000C4F2100004220123A2
:108A900000F052FC02B080BD82B001908DF803104E
:108AA0009DF803000199086002B0704782B0019000
:108AB0000091009A0199C86B1043C86302B07047D7
:108AC00080B582B001900091019800F05BF80099A8
:108AD000487891F802C0CB780A7940EA4C0040EA25
:108AE000C30040EA02204A7940EA8200897C40EAD9
:108AF0000140019908610099887991F807C00B7BC2
:108B00004A7B000640EA8C50B1F808E04FF2000CB6
:108B1000CFF6FF7C0CEB0E3C40EA0C00B1F80AC02B
:108B2000ACF1010C40EA0C0040EA437040EA82706C
:108B3000497C40EAC1700199086201980099C97B9B
:108B400000F0A6F801980099097C00F067F80198F8
:108B50000099097800F074F801980099897B00F079
:108B600029F802B080BD000081B000900098C06B71
:108B700001B0704781B000900098406B00F0010098
:108B800001B0704780B582B001900199086B40F048
:108B900001000863FFE70198006BC00708B1FFE719
:108BA000F9E7019800F028F8019800F013F802B0F6
:108BB00080BD000082B001900091009A0199886BFD
:108BC0001043886302B0704781B000900098406AFB
:108BD00001B0704781B000900099086B40F002002E
:108BE0000863FFE70098006B4008C00708B1FFE783
:108BF000F8E701B07047000081B000900099086B61
:108C000040F004000863FFE70098006B8008C0078D
:108C100008B1FFE7F8E701B07047000082B00190AB
:108C20008DF803100199086B20F47F4008639DF8CC
:108C300003200199086B40EA0220086302B07047E4
:108C400082B001908DF803100199086C20F0FF00AC
:108C500008649DF803200199086C1043086402B071
:108C60007047000082B001908DF803100199086AE6
:108C700020F4C06008629DF80300013000F0030298
:108C80000199086A40EA4220086202B07047000079
:108C900082B001908DF803100199086B20F47F00D9
:108CA00008639DF803200199086B40EA02400863BD
:108CB00002B0704783B0029001910092019802992E
:108CC000886200980299486203B0704782B00190B0
:108CD000009100980199C86202B0704786B0059073
:108CE000049103920498C0000399B0FBF1F0029044
:108CF0000298C009019001990298A0EBC11002905E
:108D00000298013040080090019805994862BDF82A
:108D1000060018B9FFE7019810B9FFE7FFE7FEE783
:108D200001984FF6FF71884204D1FFE705990020B2
:108D3000886207E001990298401A0290009805990C
:108D40008862FFE70598C06A0599C86206B0704757
:108D500081B0009000988069C0F3401001B0704766
:108D600080B584B0039002910192039900200863BA
:108D7000039948640399886303994860039948629A
:108D8000039988620399C8620398029AD1681269AC
:108D9000FFF7A4FF029890F800C041788378C2786A
:108DA000802000EA411040EA4C1040EA031040EAFB
:108DB000C20001F0030140EA41000399C862029831
:108DC000B0F80900000400BA0399486301980399B8
:108DD00088630299087991F805C08B79CA794002B5
:108DE00040EA0C20184440EAC230097A40EA813057
:108DF0000399086304B080BD80B549F22860C0F2D1
:108E00000220F6F77DF800F0B5FAFFF7CDFD00205F
:108E100080BD000080B582B0019000F08FF902B0F3
:108E200080BD000080B582B001900091019801687A
:108E3000426849F65E20C0F20220F6F719F8FFE713
:108E4000FEE7000070B588B007900691DDF81CC001
:108E5000CDF814C0DCF81810DCF81420DCF81C3055
:108E6000DCF80000DCF804E0DCF80840DCF80C502A
:108E7000DCF81060EC46CCF81060CCF80C50CCF864
:108E80000840CCF804E0CCF8000049F6E610C0F247
:108E90000220F5F7EDFFFFE7FEE7000080B582B0A6
:108EA00001900091019949F65220C0F20220F5F795
:108EB000DFFFFFE7FEE7000080B582B00190009180
:108EC000FFE741F20000C4F20100FFF741FF012873
:108ED00001D1FFE7F5E70198017841F20000C4F203
:108EE0000100FFF7D9FD002002B080BD80B588B039
:108EF0000790069103208DF8040000228DF80520CC
:108F000001208DF806008DF807208DF808008DF8F7
:108F100009008DF80A008DF80B208DF80C208DF8D3
:108F20000D008DF80E00079804900698059041F208
:108F30000000C4F2010001A9FFF712FF08B080BDD4
:108F400080B596B0159014911392FFE713980128FD
:108F500031DBFFE700200290FFE713990020012991
:108F6000019007DBFFE702990020102938BF01209C
:108F70000190FFE70198C00788B1FFE7149800F05F
:108F800081F9029A03A941F8220002980130029067
:108F9000139801381390149804301490DDE7159855
:108FA00002998A0003A900F0D5FA0299159800EBFE
:108FB00081001590CAE716B080BD000080B582B070
:108FC00001904FF0FF30009001986946042200F0B4
:108FD0004BF902B080BD000080B582B000F00EF801
:108FE00030B9FFE741F27800C0F20020019002E0C2
:108FF00000200190FFE7019802B080BD80B584B0E9
:1090000000F04AF818B1FFE70020039041E04FF468
:10901000805000F037F90290029844F24371C4F690
:109020004E11884203D0FFE70120039031E041F266
:10903000040000F027F90290029845F25301C4F6AB
:109040004901884203D0FFE70220039021E041F26A
:109050000000C0F200200190FFF7B0FF01984FF42C
:1090600080511E22FFF76CFF41F27800C0F2002011
:109070004FF488512422FFF763FF41F20810C0F239
:1090800000204FF400515022FFF75AFF00200390B8
:10909000FFE7039804B080BD82B041F20000C0F247
:1090A000002000900098006844F24371C4F64E110D
:1090B00088420CD1FFE70098406845F25301C4F69E
:1090C0004901884203D1FFE70120019002E000201E
:1090D0000190FFE7019802B07047000080B584B0AE
:1090E00003900020C4F21600FFF73EFD02909DF8A9
:1090F0000800C006002807D5FFE70020C4F21600CC
:109100001021FFF7D3FCFFE79DF808008006002838
:1091100011D5FFE70020C4F216000090FFF754FDC0
:109120000146009845F2F432C2F20002117020218B
:10913000FFF7BCFCFFE7002004B080BD80B584B021
:1091400045F2F532C2F200021078411C11704FF066
:1091500001314843009045F2F831C2F2000101911B
:10916000C861886148610861C860886048600860BB
:109170000020C4F21600002102915422FFF79AFD4C
:1091800002980390FFE70398072811D8FFE7039997
:1091900045F2F830C2F2000050F821100020C4F26D
:1091A0001600FFF793FDFFE7039801300390EAE70D
:1091B000FFE70020C4F21600FFF7DCFC08B1FFE770
:1091C000F7E704B080BD000088B006908DF8171056
:1091D0000698C11700EB5170C0100490069800F07B
:1091E00007018020C8400390002002909DF81700DE
:1091F000013801909DF8170049F28062C0F2022206
:10920000132110FB0120009000980499405C039901
:10921000084204D1FFE74FF0FF30079020E0FFE75E
:109220000198002819D4FFE7019849F28062C0F242
:109230000222132100FB0120009000980499405C59
:109240000399084204D0FFE7029801300290FFE73B
:10925000FFE7019801380190E2E702980790FFE7E5
:10926000079808B07047000080B584B00390029161
:10927000019203980299019A43F69B33984704B0F0
:1092800080BD000080B596B0159049F69E11C0F2E1
:10929000022102A801904822FEF7E6FE40F2C970C2
:1092A00080470199159800F007F8149040F60D00DA
:1092B0008047149816B080BD01F1010108470000F5
:1092C00083B002908DF807108DF806209DF80610E7
:1092D00001208840009002980068009988439DF81A
:1092E00007109DF80620914008430299086003B0DA
:1092F0007047000085B0049003918DF80B208DF825
:109300000A309DF80B100120884001380190019827
:109310009DF80A108840C0430090049800680099A6
:1093200008400399019A11409DF80A209140084392
:109330000499086005B0704784B0039002918DF8DD
:1093400007208DF806309DF807100120884001386D
:109350009DF80610884000900398006800998843A3
:1093600002999DF80620914008430399086004B0D3
:109370007047000080B584B043F20060C0F26E1008
:109380004FF4E131FFF7B2FD00F02AF848F615601E
:10939000C0F202206946086049F67320C0F202203C
:1093A0004FF480610122019200230293FBF724FF16
:1093B000014645F2F030C2F20000016000680390FF
:1093C000FBF728FD0199029B02460398EE464FF0F9
:1093D000FF3CCEF800C0FBF77BFF04B080BD00006F
:1093E00080B500F029F800F00BF8FFF761FA0146AC
:1093F00049F67520C0F20220F5F73AFD80BD000065
:1094000080B588B049F2F051C0F2022103A8019062
:109410001422FEF729FE019908208DF81200002081
:10942000C4F216000290FFF74BFB02980221FFF7EF
:1094300019FC08B080BD000080B58AB041F2000080
:10944000C0F22000FFF74EF86946082009908860B6
:109450000920059048600B200690086000200890C5
:10946000072104910A2203920C230793FEF756FE6C
:1094700004980321FEF756FF03980421FEF752FFDC
:1094800009990846FEF74EFF04990598FEF74AFF32
:1094900006980621FEF746FF07980521FEF742FFD2
:1094A000089A099849F2DD01C0F20221F5F72EFD74
:1094B0000AB080BD85B08DF80F008DF80E109DF8B4
:1094C0000F002A2804DBFFE74FF0FF3004903EE056
:1094D0009DF80F0049F28062C0F20222132110FBB6
:1094E00001200290002001909DF80E0001380090AC
:1094F00002989DF80E10CA08805C01F007028021D6
:10950000D140084204D1FFE74FF0FF3004901EE045
:10951000FFE70098002817D4FFE702980099CA17C0
:1095200001EB5272D210805C01F007028021D14021
:10953000084204D0FFE7019801300190FFE7FFE700
:10954000009801380090E4E701980490FFE7049840
:1095500005B0704780B588B00690059104920698D2
:1095600020F0FF0000F580700390FFE7049850B3EF
:10957000FFE703980699401A0290029804998842DE
:1095800003D3FFE704980290FFE706980599029A33
:1095900043F6FF4398470190019818B1FFE70198FF
:1095A000079013E0029906980844069002990598DE
:1095B0000844059002990498401A0490039800F515
:1095C00080700390D2E700200790FFE7079808B06B
:1095D00080BD02E008C8121F08C1002AFAD17047F6
:1095E0007047002001E001C1121F002AFBD1704723
:1095F0000500000007000802080008000001100430
:10960000040000000A0F1400050A0F140A0F0005D9
:1096100000000001010101010202020256575859DF
:109620005A5B5C5D60615E5FB98E02020000000003
:10963000000000000000000000000000000000002A
:109640000000000000000000458E02020000000043
:10965000258E020200000000000000000000000053
:109660009D8E0202000000000000000000000000CB
:1096700000000000000000000000000000000000EA
:10968000FFFFFFFAAAAA48C000020FFFFFFF000079
:109690000387E0FFFFFFF5555524A000010FFFFFF2
:1096A000FE800003A7E0FFFFFFFAAAA89090000049
:1096B0008FFFFFFE40000397E0FFFFFFF555564880
:1096C0008800004FFFFFFE200003C7E0FFFFFFFA06
:1096D000AAA9268400002FFFFFFE10000387E0FFE9
:1096E000FFFFF55554928200001FFFFFFE080003A4
:1096F0008FE0FFFFFFFAAAAA4A8100020FFFFFFED8
:1097000004000387E0FFFFFFF55555268080010F19
:10971000FFFFFE020003A7E0FFFFFFFAAAA8928066
:1097200040008FFFFFFE01000397E0FFFFFFF555AC
:10973000564A8020004FFFFFFE008003C7E0FFFF76
:10974000FFFAAAA9268010002FFFFFFE0040038722
:10975000E0FFFFFFF55554918008001FFFFFFE005A
:1097600020038FE0FFFFFFFAAAAA498004000FFF41
:10977000FFFE00100387E0FFFFFFF555552580022F
:10978000000FFFFFFE00080387E0FFFFFFFAAAA813
:10979000918001000FFFFFFE00040387E0FFFFFF41
:1097A000F55556498000800FFFFFFE00021387E049
:1097B000FFFFFFFAAAA9258000400FFFFFFE00016E
:1097C0000B87E0FFFFFFF55554918000240FFFFF4A
:1097D000FE00008787E0C8000000000000000000D5
:1097E000010000000000000000D0000000000000A8
:1097F000000000020000000000000000C4000000A3
:10980000000000000000008000000000000000FFD9
:10981000FFFFFAAAAA488000100FFFFFFE000043D6
:1098200087E0FFFFFFF55555248000080FFFFFFE7E
:1098300000002387E0C0000000000000400000009E
:109840000000010000000000C00000000000002037
:109850000000000000008000000000C000000000C8
:109860000000100000000000004000000000C200E6
:1098700000000000000000000040000000000000A8
:1098800000C10000000000000000000020000000F7
:1098900000000000C0800000000000000000001078
:1098A00000000000000000C00000000000000800F0
:1098B00000000000002000000000C00000000000C8
:1098C00000040000000000001000000000FFFFFF87
:1098D000FAAAA8908200000FFFFFFE08000387E0AD
:1098E000C0000000000000010000000000000400B3
:1098F000000000C000000000000000800000000028
:10990000000200000000FFFFFFF555564B804000AD
:109910000FFFFFFE01000387E0FFFFFFFAAAA92760
:109920008020000FFFFFFE00800387E0C0000000E2
:10993000000000001000000000000040000000C017
:1099400000000000000000080000000000002000EF
:109950000000C00000000000000004000000000043
:109960000010000000C00000000000000002000025
:109970000000000008000000C0000000000000001F
:109980000100000000000004000000C00000000012
:10999000000000008000000000000200000080B510
:1099A00082B001901421C4F215010868022262F30A
:1099B000524008600421C4F215010868042262F3D1
:1099C000102008600198000248300021C4F21501FF
:1099D000086040F66D3080471020C4F21500006822
:1099E00002B080BD0000484152444641554C543AB3
:1099F0000A5043203A203078253038580A4C5220FB
:109A00003A203078253038580A5053523A2030786E
:109A1000253038580A5230203A20307825303858CE
:109A20000A5231203A203078253038580A523220F4
:109A30003A203078253038580A5033203A20307890
:109A4000253038580A5231323A203078253038588B
:109A50000A005B4F4F4D5D20402025640A005B41AA
:109A60005353455254494F4E5D20402025733A25AB
:109A7000640A00610020736574757020636C6B204C
:109A80002564200A00000000989A0202F05300208A
:089A90002C000000E295020227
:04000005020280096A
:00000001FF
