:020000040202F6
:10800000000000001D800202DFF80CD000F01AF81A
:10801000004800472D8002026C57002002B5EFF3A4
:10802000088181F30988054800470000044880471B
:10803000EFF3098181F3088802BD00004580020248
:10804000F19A0202064C074D06E0E06840F0010399
:1080500094E8070098471034AC42F6D3FFF7D8FFF6
:1080600064AE020284AE020240EA01039B0703D021
:1080700009E008C9121F08C0042AFAD203E011F867
:10808000013B00F8013B521EF9D27047034611F83C
:10809000012B00F8012B002AF9D1184670472DE971
:1080A000FE4F804681EA0300C00F0C46009021F08D
:1080B000004123F00045B8EB0200A94105D240463B
:1080C000214690461C460B46024623F000401043D2
:1080D00047D0270DC7F30A00C3F30A510290401A94
:1080E000019040286BDAC3F3130040F4801B009822
:1080F000924620B10023D2EB030A63EB0B0B0198ED
:108100005946C0F14002504600F026F906460D4699
:1081100050465946019A00F02EF910EB08006141D3
:10812000002487EA115284EAE7731A4340D0009A88
:1081300062B3019A012A4FEA075215DC001B61EB7A
:1081400002014FF0004202EA0752CDE90042001C52
:1081500041F5801132462B4600F02EF903B0BDE800
:10816000F08F40462146F9E7001B61EB0201001C3D
:1081700041F5801300185B412018A2F5001747EB6A
:10818000030140EAD570B6196D4111E06D084FEA60
:10819000360645EAC0754FEA0752001B61EB020143
:1081A000001C41F5801149084FEA30000019514187
:1081B00032462B4603B0BDE8F04F00F0EEB8009811
:1081C000012240000023D0EB020263EBE073009831
:1081D00021464FEAE074B8EB000061EB0401E9E7E7
:1081E00083F000435BE781F0004158E72DE9F04D53
:1081F00081EA030404F0004B21F0004514464FF0DF
:10820000000A23F0004150EA050220D054EA01029E
:108210001DD0C5F30A570246C5F31303C1F313007B
:10822000C1F30A5640F4801543F48013A7EB060807
:10823000101BD64608F2FD3873EB050002D308F197
:10824000010801E092185B41B8F1000F03DA002049
:108250000146BDE8F08D00204FF4801106468446AB
:108260000EE0171B73EB050705D3121B63EB050329
:1082700006434CEA010C49084FEA300092185B4172
:1082800050EA0107EDD152EA030012D082EA04005D
:1082900083EA0501084305D0101BAB4106D2012239
:1082A000002306E000224FF0004302E06FF00102DD
:1082B00053101AEB06004CEB085110EB0A0041EB8F
:1082C0000B01BDE8F04D00F068B830B50B46014633
:1082D00000202022012409E021FA02F59D4205D365
:1082E00003FA02F5491B04FA02F52844151EA2F10F
:1082F0000102F1DC30BD2DE9F05F05460020924619
:108300009B4688460646814640241BE02846414657
:108310004746224600F040F953465A46C01A91415A
:1083200010D311461846224600F016F82D1A67EBB6
:1083300001084F4622460120002100F00DF817EBFE
:1083400000094E41201EA4F10104DFDC48463146FD
:108350002A464346BDE8F09F202A04DB203A00FA73
:1083600002F1002070479140C2F1200320FA03F38C
:10837000194390407047202A06DBCB17203A41FA78
:1083800002F043EAE07306E041FA02F3D040C2F1A2
:108390002002914008431946704710B5141E73F12E
:1083A000000408DA401C41F1000192185B411A43B5
:1083B00001D120F0010010BD2DE9F04D92469B4601
:1083C00011B1B1FA81F202E0B0FA80F220329046A7
:1083D000FFF7C2FF04460F4640EA0A0041EA0B01DC
:1083E00053465A46084313D0114653EA010019D0A8
:1083F000C8F14002504600F0CFF805460E46504600
:1084000059464246FFF7A8FF084305D0012004E083
:1084100020463946BDE8F08D0020054346EAE07667
:108420002C4337430A986305E40AA0EB08000022B6
:10843000FD0A44EA47540A3002D500200146E9E724
:10844000010510196941DDE9084500196941BDE8D8
:10845000F04DA2E72DE9FE4F81EA030404F0004449
:1084600021F0004100944FF0000B23F0004350EA4C
:1084700001045ED052EA03045BD0C3F30A54C1F393
:108480000A552C44A4F2F3340194A0FB0254C1F326
:10849000130141F48011C3F3130343F4801301FB70
:1084A000024400FB034E840A970A44EA815447EAD7
:1084B0008357A4FB076802958D0A05FB07854FEAE1
:1084C000932C04FB0C542705029D4FEA065847EAFB
:1084D0001637B5EB08056EEB070C870E920E47EAD0
:1084E000811742EA8312A7FB0201B6EB0B0164EB92
:1084F00000042B0D43EA0C335E1844EB1C50DA46A3
:108500005146E7FB0201C5F313044FEA0B3343EA7C
:1085100014534FEA0432019C43EA0603A4F10C040D
:108520000294009CCDE900B4FFF746FF03B0BDE81C
:10853000F08F00200146F9E7C1F30A52C1F313019D
:1085400040F2FF3341F480119A4202DA00200146E2
:10855000704740F233439A42A2F2334202DC524265
:1085600000F01AB8FFF7F8BE30B5041E71F1000430
:1085700004DB4FF00044404264EB0101141E73F130
:10858000000405DB1C464FF00043524263EB04033A
:10859000994208BF904230BD202A04DB203A21FADC
:1085A00002F00021704721FA02F3D040C2F120020C
:1085B000914008431946704783B002908DF8071028
:1085C0008DF806209DF80710012088400090029841
:1085D0000068009988439DF806109DF80720914097
:1085E00008430299086003B07047000080B586B068
:1085F0008DF817008DF816109DF8171045F2000041
:10860000C4F201001429C4BF46F20000C4F2010004
:1086100004909DF81700152805DBFFE79DF817006B
:108620001538029003E09DF817000290FFE70298CA
:1086300003909DF81600032817D0FFE70498283010
:108640009DF80C109DF81620002A18BF0122FFF794
:10865000B3FF049834309DF80C109DF81620B2FA40
:1086600082F25209FFF7A8FF0FE0049828309DF826
:108670000C1000220192FFF79FFF019A04983430FA
:108680009DF80C10FFF798FFFFE706B080BD0000D3
:1086900084B08DF80F008DF80E109DF80F1045F284
:1086A0000000C4F201001429C4BF46F20000C4F265
:1086B000010002909DF80F00152805DBFFE79DF8EB
:1086C0000F001538009003E09DF80F000090FFE7C1
:1086D000009801909DF80E0048B1FFE70199012034
:1086E00000FA01F20299086B1043086308E001994F
:1086F000012000FA01F20299C86A1043C862FFE73C
:1087000004B07047B0B58EB00D9000200B9000F013
:1087100097F801460B9845F22462C2F200020992D2
:10872000116000F08DF802460998014641F8042FC7
:108730000C91006804900C990968C1F340020592FD
:1087400001F001020692C1F3C0020792C1F3800456
:1087500045F2D031C2F200010A910968401A08902E
:10876000062000F0D5FC0499059A069BDDF81CE074
:10877000844608984DF68365C4F21B35ACFB055C56
:108780004FEA9C4CB0FBFCF0EC46CCF80440CCF833
:1087900000E0CCF808004AF60560C0F2022001F0C3
:1087A000EDFC09990A9A0B98096811600EB0B0BDEA
:1087B00081B08DF803009DF8030045F29001C4F2EA
:1087C0000001086001B0704781B08DF803008DF89A
:1087D00002108DF801209DF802009DF8011040EA7A
:1087E00081009DF803100A0145F26001C4F2000106
:1087F000885001B07047000082B08DF807008DF8F6
:10880000061000929DF8060060B1FFE7009B9DF8FE
:108810000700420145F20001C4F2000188581843E4
:1088200088500BE0009B9DF80700420145F20001D3
:10883000C4F20001885898438850FFE702B070479F
:1088400081B08DF803009DF80300010145F264003A
:10885000C4F20000405801B07047000080B586B0F7
:10886000DDF820C08DF813000391029201939DF86A
:1088700013007F2812D1FFE7029946F24000C4F2AC
:10888000000000EB81009DF804209DF820304FF09F
:10889000FF3101F087FB0020059024E003989DF84C
:1088A000131001F00FFB00900098B0F1FF3F03DCC4
:1088B000FFE70098059016E0029946F24000C4F2E6
:1088C000000000EB810000999DF804209DF8203005
:1088D00001F068FB9DF813009DF80C1000F01AF8E9
:1088E00000200590FFE7059806B080BD80B584B0F4
:1088F00003908DF80B109DF80B00039A02F18D0187
:1089000002EB82026B461A600A220523FFF7A6FFDC
:1089100004B080BD80B584B08DF80B008DF80A10CE
:108920009DF80B009DF80A1001F0C4FB019001981E
:10893000B0F1FF3F03DCFFE701980390BAE09DF838
:108940000B00112812DCFFE79DF80B2046F2000017
:10895000C4F20000104320F00300019902F003026A
:10896000C2EBC203072201F01DFBA0E09DF80B0043
:10897000142810DCFFE701999DF80B206FF015001B
:1089800000EB4200C3B246F21000C4F20000022223
:1089900001F008FB8AE09DF80B0015280AD1FFE7DB
:1089A000019946F21000C4F200000722142301F0DE
:1089B000F9FA7AE09DF80B0016280AD1FFE7019931
:1089C00046F21400C4F200000722002301F0EAFA84
:1089D0006AE09DF80B001E2810DCFFE701999DF866
:1089E0000B206FF0260000EB4200C3B246F21400E9
:1089F000C4F20000022201F0D5FA54E09DF80B0009
:108A00001F280AD1FFE7019946F21400C4F20000C2
:108A10000722172301F0C6FA44E09DF80B00202836
:108A20000AD1FFE7019946F21400C4F200000222C5
:108A30001E2301F0B7FA34E09DF80B0021280AD17B
:108A4000FFE7019946F21800C4F200000222002359
:108A500001F0A8FA24E09DF80B0023280FDCFFE7C3
:108A600001999DF80B00C0EBC000EC38C3B246F290
:108A70001800C4F20000072201F094FA0FE00199F7
:108A80009DF80B206FF0370000EB4200C3B246F2B6
:108A90001800C4F20000022201F084FAFFE7FFE7A9
:108AA000FFE7FFE7FFE7FFE7FFE7FFE7FFE700205C
:108AB0000390FFE7039804B080BD000080B582B04A
:108AC0008DF807008DF806109DF807009DF8061038
:108AD00001F001036A46012111600021062200F025
:108AE00017F802B080BD000080B582B08DF8070095
:108AF0008DF806109DF807009DF806306A460321A0
:108B000011600021072200F003F802B080BD0000D0
:108B100080B585B0844607988DF813C003918DF811
:108B20000B208DF80A308DF809009DF8131003987A
:108B300000EB411045F20001C4F20001084401902D
:108B40009DF809100120884001389DF80B108840DD
:108B5000009001980068009988439DF80A109DF8DC
:108B60000B20914008430199086005B080BD0000CA
:108B700080B582B00190019800EB400145F2D430FD
:108B8000C2F2000000EBC100183000F0D9FE02B0C4
:108B900080BD000080B500F085FE80BD80B586B048
:108BA000059004910392FFE745F2D430C2F2000031
:108BB000007818B9FFE700F075FEFFE7FFE7EFF375
:108BC00011804FF0200181F31188019005980499DC
:108BD000039A00F007F80290019880F31188029838
:108BE00006B080BD80B58AB00990089107920898B8
:108BF0000490099800EB400145F2D430C2F2000025
:108C000000EBC1001830039003984069029040B116
:108C1000FFE70298012819D0FFE7029802282CD01C
:108C200032E0039800F08CFE059005980799884281
:108C300003D2FFE70020069007E00798069003980C
:108C40000499079A00F00CFFFFE720E0039800F07A
:108C500077FE059005980799884203D2FFE70598AB
:108C6000019002E007980190FFE7019806900398B1
:108C70000499069A00F0F4FE09E003980499079A13
:108C800000F07EFE069002E000200690FFE70698C6
:108C90000AB080BD80B582B08DF807009DF807004E
:108CA000012100F025F802B080BD000080B582B03F
:108CB000019000208DF80300FFE79DF803001828BD
:108CC00013DCFFE701989DF80310C840C00728B1E6
:108CD000FFE79DF80300FFF7DDFFFFE7FFE79DF8E3
:108CE000030001308DF80300E7E702B080BD00000B
:108CF00080B586B08DF817008DF816109DF8170016
:108D000001460491182800F2B3810499DFE811F0BC
:108D100019002A003B004C005D006E007F009000AF
:108D2000A100B200CA00E300F4000D011E012F01F2
:108D30004001510162016B0174017D0186019701BF
:108D4000A7019DF816100C20C4F20000152201F0B6
:108D50000FF99DF816101420C4F20000122201F041
:108D600007F986E19DF816100C20C4F200001622C7
:108D700001F0FEF89DF816101420C4F20000122233
:108D800001F0F6F875E19DF816100C20C4F2000011
:108D9000022201F0EDF89DF816101420C4F2000034
:108DA000002201F0E5F864E19DF816100C20C4F2F1
:108DB0000000032201F0DCF89DF816101420C4F224
:108DC0000000012201F0D4F853E19DF816100C20A8
:108DD000C4F20000042201F0CBF89DF81610142014
:108DE000C4F20000022201F0C3F842E19DF816101F
:108DF0000C20C4F20000012201F0BAF89DF8161010
:108E00001420C4F20000112201F0B2F831E19DF803
:108E100016100C20C4F20000052201F0A9F89DF8FC
:108E200016101420C4F200000A2201F0A1F820E17B
:108E30009DF816100C20C4F20000082201F098F8EA
:108E40009DF816101420C4F20000092201F090F8D9
:108E50000FE19DF816100C20C4F20000092201F069
:108E600087F89DF816105420C4F200000C2201F07F
:108E70007FF8FEE09DF816100C20C4F200000A22D4
:108E800001F076F89DF816101420C4F2000003904B
:108E9000132201F06DF803989DF81610142201F0CA
:108EA00067F8E6E09DF816100C20C4F200000B22D3
:108EB000019201F05DF8019A9DF816101420C4F299
:108EC0000000029001F054F802989DF8161010224C
:108ED00001F04EF8CDE09DF816100C20C4F2000011
:108EE0000C2201F045F89DF816100820C4F200008D
:108EF000002201F03DF8BCE09DF816100820C4F2F5
:108F000000000C2201F034F89DF816100C20C4F279
:108F100000000D2201F02CF89DF816101420C4F268
:108F20000000062201F024F8A3E09DF816100C20A2
:108F3000C4F200000E2201F01BF89DF81610142058
:108F4000C4F20000072201F013F892E09DF8161019
:108F50000C20C4F200000F2201F00AF89DF8161050
:108F60001420C4F200000C2201F002F881E09DF808
:108F700016100C20C4F20000102200F0F9FF9DF83A
:108F800016101420C4F20000082200F0F1FF70E077
:108F90009DF816100C20C4F20000112200F0E8FF2A
:108FA0009DF816101420C4F20000042200F0E0FF27
:108FB0005FE09DF816100C20C4F20000122200F0B1
:108FC000D7FF9DF816101420C4F20000052200F00F
:108FD000CFFF4EE09DF816100C20C4F200001322C3
:108FE00000F0C6FF45E09DF816100C20C4F200000A
:108FF000142200F0BDFF3CE09DF816100C20C4F2D6
:109000000000002200F0B4FF33E09DF816100C20A1
:10901000C4F20000062200F0ABFF2AE09DF8161013
:109020000C20C4F20000172200F0A2FF9DF81610D9
:109030001420C4F200000E2200F09AFF19E09DF8FF
:1090400016108020C4F200000090052200F090FF6E
:1090500000989DF81610072200F08AFF09E09DF89D
:1090600016100C20C4F20000192200F081FF00E06D
:10907000FFE706B080BD000080B582B08DF8070024
:109080008DF806109DF8060000F001019DF80720FC
:109090007420C4F2000000F06BFF02B080BD00003D
:1090A00080B582B02C20C4F20000016801F02F01CD
:1090B000ADF8061001682F2000EA9110ADF8040009
:1090C00000F0C6F9BDF804104843BDF80610B0FB27
:1090D000F1F002B080BD000080B582B00420C4F27F
:1090E00000000068C004002804D5FFE74FF40040EA
:1090F00001900AE000F0ACF91C21C4F200010968FB
:10910000090DB0FBF1F00190FFE7019802B080BDBE
:1091100080B58EB08DF833009DF8330002380146DB
:109120000B91152800F235810B99DFE811F016003C
:10913000160016003201480032000C016100CF0019
:1091400032017A009300DF00A300BC00BC002E01B6
:109150002E0132013201EF00FF000420C4F20000B2
:1091600000689DF833100D31C840C00720B1FFE7FB
:10917000FFF7B2FF0D9010E100F06AF90A900B20A2
:10918000142100F047FE01460A98B0FBF1F00D9063
:1091900003E100F05DF9079016200890062100F029
:1091A0006DFE07990246089851430991002100F08D
:1091B00065FE01460998B0FBF1F00D90EDE02C2022
:1091C000C4F2000000680004002804D5FFE7FFF7A0
:1091D00083FF0D90E1E000F03BF906900B201B218E
:1091E00000F018FE01460698B0FBF1F00D90D4E0B7
:1091F0000420C4F2000000688004002804D5FFE7C2
:10920000FFF76AFF0D90C8E000F022F905900020FA
:10921000182100F0FFFD01460598B0FBF1F00D901C
:10922000BBE00420C4F200000068800200280DD5D5
:10923000FFE700F0E3F804900020142100F0EAFDBD
:1092400001460498B0FBF1F00D90A6E000F000F9A3
:109250000D90A2E00420C4F2000000684002002843
:1092600004D5FFE700F09CF80D9096E000F0F0F8D0
:109270000D9092E00420C4F2000000680002002873
:109280000DD5FFE700F0BAF8039000200C2100F0A4
:10929000C1FD01460398B0FBF1F00D907DE000F0B8
:1092A000D7F80D9079E00420C4F2000000689DF822
:1092B00033100331C840C00720B1FFE700F070F859
:1092C0000D906AE000F0C4F80D9066E02C20C4F226
:1092D00000000068C003002804D5FFE7FFF7E0FEA8
:1092E0000D905AE000F0B4F80D9056E02C20C4F236
:1092F000000000688003002804D5FFE7FFF7D0FED8
:109300000D904AE000F0A4F80D9046E02C20C4F245
:10931000000000680003002804D5FFE7FFF7C0FE47
:109320000D903AE000F094F80D9036E000F066F809
:1093300002902020002100F06DFD01460298B0FB54
:10934000F1F00D9029E05420C4F200000068000400
:1093500000280DD5FFE700F023F80190152001212A
:1093600000F072FD01460198B0FBF1F00D9014E0A1
:1093700000F06EF800901520012100F065FD014617
:109380000098B0FBF1F00D9007E000F027F80D9089
:1093900003E000F05DF80D90FFE70D980EB080BD82
:1093A00080B582B00420C4F20000006840040028A8
:1093B0000DD5FFE700F022F800900021084600F0EC
:1093C00029FD01460098B0FBF1F0019003E000F0A8
:1093D0003FF80190FFE7019802B080BD80B582B0F0
:1093E000FFF7DEFF01900020042100F013FD01468D
:1093F0000198B0FBF1F002B080BD000080B584B0F0
:1094000040F2A810C4F210000068C002002818D56D
:10941000FFE74021C4F2000101910868C0F3450054
:109420000968C1F3C5314843029000F011F8019971
:10943000029AB0FBF2F00968C1F3C71148430390E8
:1094400002E000200390FFE7039804B080BD000015
:1094500083B042F21000C4F210000068C0F3002094
:109460008DF807009DF8070030B1FFE743F2006078
:10947000C0F26E10029039E040F27C10C4F210008D
:109480000068C0F30430014600910F2828D80099E5
:10949000DFE801F0080E26142626261A26262626A0
:1094A0002626262041F20020C0F27A0002901DE01C
:1094B00042F20040C0F2F400029017E043F2006074
:1094C000C0F26E10029011E044F60000C0F2E81005
:1094D00002900BE046F60040C0F2DC20029005E06E
:1094E00049F20000C0F2D0300290FFE7029803B0CA
:1094F0007047000080B582B08DF807009DF8070026
:10950000012100F00FF802B080BD000080B582B0EC
:109510008DF807009DF80700002100F003F802B065
:1095200080BD000080B584B08DF80F008DF80E105E
:109530009DF80F0001460291162800F267810299FA
:10954000DFE811F01700200029003A004B005C0012
:109550006D007E008F00A000A900C100CA00DB00E2
:10956000EC00FD000E011F013001390142014B01E9
:1095700054019DF80E102020C4F200001F2200F0BC
:10958000F7FC44E19DF80E102420C4F200000022F4
:1095900000F0EEFC3BE19DF80E102020C4F200002C
:1095A0000C2200F0E5FC9DF80E102420C4F200000F
:1095B000022200F0DDFC2AE19DF80E102020C4F20A
:1095C00000000D2200F0D4FC9DF80E102420C4F2FF
:1095D0000000032200F0CCFC19E19DF80E102020C1
:1095E000C4F200000E2200F0C3FC9DF80E102420EF
:1095F000C4F20000042200F0BBFC08E19DF80E104C
:109600002020C4F200000B2200F0B2FC9DF80E10E6
:109610002420C4F20000122200F0AAFCF7E09DF81A
:109620000E102020C4F200000F2200F0A1FC9DF8D3
:109630000E102420C4F200000C2200F099FCE6E099
:109640009DF80E102020C4F20000122200F090FCC1
:109650009DF80E102420C4F200000B2200F088FCBC
:10966000D5E09DF80E102020C4F20000132200F077
:109670007FFC9DF80E105420C4F200000E2200F072
:1096800077FCC4E09DF80E102020C4F200001422E4
:1096900000F06EFCBBE09DF80E102020C4F200002C
:1096A000152200F065FC9DF80E102420C4F2000085
:1096B00001900D2200F05CFC01989DF80E10112223
:1096C00000F056FCA3E09DF80E102020C4F200002C
:1096D000162200F04DFC9AE09DF80E102020C4F2F6
:1096E0000000172200F044FC9DF80E102420C4F264
:1096F0000000082200F03CFC89E09DF80E102020BC
:10970000C4F20000182200F033FC9DF80E10242053
:10971000C4F20000092200F02BFC78E09DF80E1046
:109720002020C4F20000192200F022FC9DF80E1047
:109730002420C4F200000E2200F01AFC67E09DF81D
:109740000E102020C4F200001A2200F011FC9DF837
:109750000E102420C4F200000A2200F009FC56E09A
:109760009DF80E102020C4F200001B2200F000FC27
:109770009DF80E102420C4F20000062200F0F8FB31
:1097800045E09DF80E102020C4F200001C2200F0DD
:10979000EFFB9DF80E102420C4F20000072200F019
:1097A000E7FB34E09DF80E102020C4F200001D22DB
:1097B00000F0DEFB2BE09DF80E102020C4F200002C
:1097C0001E2200F0D5FB22E09DF80E102020C4F2EE
:1097D00000000A2200F0CCFB19E09DF80E102020BA
:1097E000C4F20000102200F0C3FB10E09DF80E1040
:1097F0002420C4F200000090012200F0B9FB009880
:109800009DF80E100F2200F0B3FB00E0FFE704B05C
:1098100080BD000080B582B08DF807009DF807007C
:109820000021FFF765FA02B080BD000080B582B06C
:10983000019000208DF80300FFE79DF80300182831
:1098400013DCFFE701989DF80310C840C00728B15A
:10985000FFE79DF80300FFF7DDFFFFE7FFE79DF857
:10986000030001308DF80300E7E702B080BD00007F
:1098700041F21801C4F2000145F6A520086041F24A
:109880001401C4F200014CF6FE200860704700008D
:1098900082B001908DF803109DF8030001990860D3
:1098A00002B0704780B582B045F2D430C2F20000F9
:1098B00001900199012008610199486101984AF6D7
:1098C0005961C0F202218161019A45F22C40C2F235
:1098D0000000D061019A4FF4FA701062019A0020E2
:1098E0009062019A5062019AD062019A1163019AC2
:1098F00045F21C41C2F200015163019A10219163AB
:10990000019908640199C863019948640198073076
:109910004AF65561C0F20221FEF7B8FBBFF35F8F34
:1099200001984AF64E61C0F20221FEF7AFFBBFF389
:109930005F8F019920208871BFF35F8F02B080BDD7
:1099400084B003900398006902900398C068019066
:1099500002980199884209D8FFE703988068019925
:10996000401A029908440138009005E002990198D4
:10997000C04308440090FFE7009804B0704700001F
:1099800080B58AB009900891079200200590099847
:10999000C0680390FFE70998006904900498039950
:1099A000884206D9FFE704990398C043084406900B
:1099B00008E0099881680398049A801AC043084413
:1099C0000690FFE7069809998968039A891A8842E0
:1099D00003D2FFE70698029005E009988068039992
:1099E000401A0290FFE7029806900698079988426D
:1099F00003D2FFE70698019002E007980190FFE785
:109A00000198069009984068039908440899069AB5
:109A1000FEF72AFB069905980844059006990898D0
:109A20000844089006990798401A079006990398E9
:109A300008440390039809998968884203D1FFE795
:109A400000200390FFE7BFF35F8F03980999C86078
:109A5000FFE7079800289ED1FFE705980AB080BD70
:109A600080B586B00590049103920598C068019076
:109A7000059880680199401A0090009803998842DF
:109A800010D9FFE705984068019908440499039AA2
:109A9000FEF7EAFABFF35F8F01980399084405992E
:109AA000C8601BE00098029005984068019908443E
:109AB0000499029AFEF7D8FA03980099401A029086
:109AC000059840680499009A1144029AFEF7CCFA6E
:109AD000BFF35F8F02980599C860FFE706B080BDAD
:109AE00081B0009000988069C0F3401001B07047C9
:109AF00080B588B000F076F949F63541C0F2022110
:109B0000042000220792F5F727F9079A49F6154134
:109B1000C0F202210520F5F71FF9079A49F68D4199
:109B2000C0F202210720F5F717F9079A49F6B1614B
:109B3000C0F2022102200690F5F70EF9079A49F6C5
:109B40006571C0F202210320F5F706F9079A49F67C
:109B5000A941C0F202211046F5F7FEF800F088FA9C
:109B6000079B69464B600E20049008604AF265101E
:109B7000C0F202204AF64C61C0F202218022039218
:109B8000FAF7C2FF039A079B049869464B60086086
:109B900049F6D130C0F202204AF64A61C0F20221F1
:109BA000FAF7B2FF45F26470C2F20000059000F0CF
:109BB000D1FA059A49F6DD41C0F202210820F5F7F5
:109BC000CBF806980799F4F787FF079808B080BD8F
:109BD00080B584B00390FFE74FF480600190F9F7FF
:109BE000F1FE45F22060C2F20000029001780C20E4
:109BF000FEF74EFD0198F9F7E5FE029801780D2079
:109C0000FEF746FD02990868B0FA80F04009086046
:109C1000E2E7000080B582B00190009101980168F0
:109C200042684AF63560C0F20220F5F757F8FFE7C0
:109C3000FEE7000070B588B007900691DDF81CC003
:109C4000CDF814C0DCF81810DCF81420DCF81C3057
:109C5000DCF80000DCF804E0DCF80840DCF80C502C
:109C6000DCF81060EC46CCF81060CCF80C50CCF866
:109C70000840CCF804E0CCF800004AF69950C0F255
:109C80000220F5F72BF8FFE7FEE7000080B582B071
:109C90000190009101994AF62960C0F20220F5F77F
:109CA0001DF8FFE7FEE7000080B582B0019000914B
:109CB000FFE741F20000C4F20100FFF711FF0128A5
:109CC00001D1FFE7F5E70198017841F20000C4F205
:109CD0000100FFF7DDFD002002B080BD80B586B039
:109CE000059004914EF60450CEF2000000686FF328
:109CF0005F20B0FA80F040098DF80B009DF80B0052
:109D000028B1FFE7F4F798FF406B8047FFE700209A
:109D1000FEF72EFF039005990889498908440399A5
:109D200088420EDAFFE70598016802890020019059
:109D3000FEF734FF0198059A51685289FEF72EFF0D
:109D4000FFE79DF80B0028B1FFE7F4F775FF806B84
:109D50008047FFE7002006B080BD000080B52020CE
:109D6000C0F22100FEF7A2FF41F23001C4F201016E
:109D700000220A6041F24400C4F20100026041F294
:109D80003803C4F201031A6041F20400C4F2010076
:109D9000026041F2240CC4F2010C0D20CCF800004A
:109DA00041F2280CC4F2010C0120CCF8000041F271
:109DB0002C0CC4F2010C7020CCF8000041F2340CE1
:109DC000C4F2010C40F20110CCF800001A600860E7
:109DD0004EF6F050CEF200000068C00708B9FFE769
:109DE000FFE780BD80B504200021F4F775FE062052
:109DF0004FF4FA71F4F770FE80BD000080B582B0B8
:109E00000190009101A80021FFF74EFF019802B0D8
:109E100080BD000084B00390029103994FF0804010
:109E200050F821000299C84000F00F0001900198FD
:109E300018B9FFE70120009002E001980090FFE7C9
:109E4000009804B07047000084B003900291039919
:109E50004FF0804050F821000299C8406FF39F20D6
:109E60000190019818B9FFE70120009002E00198E5
:109E70000090FFE7009804B07047000084B00390A2
:109E8000029103994FF0804050F821000299C84098
:109E900000F03F000190019818B9FFE70120009001
:109EA00002E001980090FFE7009804B070470000BE
:109EB00080B582B00190009100F0DAF8002002B085
:109EC00080BD000088B006908DF817100698C11765
:109ED00000EB5170C0100490069800F0070180203C
:109EE000C8400390002002909DF8170001380190AF
:109EF0009DF817004AF66E22C0F20222132110FBD1
:109F00000120009000980499405C0399084204D114
:109F1000FFE74FF0FF30079020E0FFE701980028AF
:109F200019D4FFE701984AF66E22C0F202221321EB
:109F300000FB0120009000980499405C03990842BE
:109F400004D0FFE7029801300290FFE7FFE7019895
:109F500001380190E2E702980790FFE7079808B000
:109F60007047000082B001900091002002B070475D
:109F700083B002908DF807108DF806209DF806102A
:109F800001208840009002980068009988439DF85D
:109F900007109DF80620914008430299086003B01D
:109FA0007047000085B0049003918DF80B208DF868
:109FB0000A309DF80B10012088400138019001986B
:109FC0009DF80A108840C0430090049800680099EA
:109FD00008400399019A11409DF80A2091400843D6
:109FE0000499086005B0704780B584B040F603005E
:109FF000C0F23000FEF75AFE0020029006210191C7
:10A00000FEF774FC012003900721FEF76FFC40204F
:10A010000090FFF70BFC0198FFF778FA029803997C
:10A02000FFF72AF80098FEF741FE0198FFF762FA61
:10A0300001990298FEF758FD029803994FF44022C7
:10A04000FEF7DAFB029A48F20571C0F202211420F1
:10A05000F4F792FE029803221146FEF7B5FB03982F
:10A06000FEF7A6FB02980399FEF728FD04B080BD19
:10A0700080B584B0FFF772FEFFF7B6FF0C200190A9
:10A0800000210091FEF746FC00990D200290FEF79A
:10A0900041FC019801210391FEF7A8FA0298039967
:10A0A000FEF7A4FA4AF68C50C0F20220F4F716FE2E
:10A0B00004B080BD85B08DF80F008DF80E109DF8AE
:10A0C0000F002A2804DBFFE74FF0FF3004903EE04A
:10A0D0009DF80F004AF66E22C0F20222132110FBF7
:10A0E00001200290002001909DF80E0001380090A0
:10A0F00002989DF80E10CA08805C01F007028021CA
:10A10000D140084204D1FFE74FF0FF3004901EE039
:10A11000FFE70098002817D4FFE702980099CA17B4
:10A1200001EB5272D210805C01F007028021D14015
:10A13000084204D0FFE7019801300190FFE7FFE7F4
:10A14000009801380090E4E701980490FFE7049834
:10A1500005B0704780B582B00190FEF71BFD02B0DC
:10A1600080BD000080B582B00190FFE74FF4105031
:10A17000F9F728FCFFF77CFBF8E700000FB4054B6C
:10A1800010B503A9044A029800F0DAF810BC5DF893
:10A1900014FB0000FD9D0202C853002002E008C825
:10A1A000121F08C1002AFAD170477047002001E051
:10A1B00001C1121F002AFBD1704700002DE9FF5F8B
:10A1C00082B00021DDE90430020DDDF840B0034328
:10A1D00018D044F61050A2F2FF32424315141198E1
:10A1E00001281FD0A5EB0B00401C5FEA000A4FF0CE
:10A1F00000064E4FDFF83891B046504615D5CAF1EB
:10A20000000413E0119801244AA3012801D16FEA48
:10A210000B010298119AC0E90031C0E9024206B070
:10A22000BDE8F09FCBF10000DFE704460021404A83
:10A23000491842EB0450CDE9001012E0E00707D0C6
:10A2400032463B4640464946FEF704F98046894679
:10A2500032463B4610461946FEF7FCF806460F46C6
:10A260006410002CEAD1DDE90401DDE90023BAF134
:10A27000000F06DAFEF7EEF842464B46FEF7EAF824
:10A2800005E0FDF7B3FF42464B46FDF7AFFF04463E
:10A290000E460022284BFEF767F903D84FF0FF3037
:10A2A000014607E00022254B20463146FDF7F7FE28
:10A2B000FEF742F9102409E0002C0ADB0A220023F1
:10A2C000FEF719F8039B30321A55641E50EA01025A
:10A2D000F2D1641C039AC4F111031444119A012AA7
:10A2E00003D0012208430DD10AE0084304D0002026
:10A2F0004FF0110B119072E7A3EB0B056D1E0DE0F3
:10A300005B4504DD4FF0000205F1010504E003DACE
:10A310004FF00002A5F10105002AECD00298119936
:10A32000C0E90231C0E9004579E7000000001440AF
:10A330000000F03F300000000000F0430000E03F6C
:10A340002DE9FF4F95B09B468946064600250FE252
:10A35000252877D100242746F84A0121059400E0FA
:10A36000044316F8013F203B01FA03F01042F7D1F5
:10A3700030782A2811D06FF02F033078A0F1300206
:10A38000092A16D8059A44F0020402EB820203EB74
:10A3900042021044761C0590EFE759F8042B059211
:10A3A000002A03DA504244F40054059044F00204B9
:10A3B000761C30782E2816D116F8010F44F00404CC
:10A3C0002A280DD06FF02F023078A0F13003092B2E
:10A3D00009D807EB870302EB4303C718761CF3E7A2
:10A3E00059F8047B761C30786C280FD006DC4C289A
:10A3F00017D068280DD06A2814D104E0742810D032
:10A400007A280FD10DE044F400140AE044F48014DB
:10A4100001E044F440147278824202D104F58014C1
:10A42000761C761C307866280BD013DC582877D041
:10A4300009DC002875D04528F6D04628F4D04728F6
:10A440001AD19DE118E0632835D0642879D06528B9
:10A4500012D195E1702873D008DC6728F1D0692803
:10A460006FD06E280DD06F2806D1B5E073282CD0A0
:10A47000752875D0782874D05A46179990476D1C66
:10A4800075E1C4F30250022809D003280DD0D9F891
:10A49000001004280DD00D6009F1040967E1D9F816
:10A4A0000010EA17C1E90052F6E7D9F800100D8054
:10A4B000F2E70D70F0E719F8041B8DF8001000208A
:10A4C0008DF80100EA46012003E059F804AB4FF093
:10A4D000FF3061074FF0000102D40DE008F10101E7
:10A4E0008846B9420FDA8045F8DB1AF808100029CF
:10A4F000F4D108E008F1010188468142FADB1AF83C
:10A5000008100029F6D105985B46A0EB0807214604
:10A510003846179A00F094FA284400EB080507E043
:10A520004DE029E10DE01AF8010B5A4617999047C2
:10A53000B8F10108F7D25B4621463846179A13E175
:10A5400042E00A220092C4F302524FF0000A022AAB
:10A5500008D059F804CB032A4FEAEC710AD00DE079
:10A5600029E02AE009F1070121F00702F2E802C11F
:10A57000914609E00FFA8CFC4FEAEC71042A03D1F2
:10A580004FFA8CFC4FEAEC71002907DA0A460021E9
:10A59000DCF1000C61EB02012D2202E0220504D562
:10A5A0002B228DF80420012203E0E20701D02022B3
:10A5B000F7E7904659E00A2102E010220DE0102151
:10A5C0004FF0000A00910BE010224FF0000A44F017
:10A5D00004040827009203E008224FF0000A0092CA
:10A5E000C4F30252022A05D059F804CB0021032AF1
:10A5F00008D009E009F1070121F00702F2E802C1E1
:10A60000914605E01FFA8CFC042A01D10CF0FF0CE6
:10A610004FF00008220728D5702806D0009B83F051
:10A62000100353EA0A0305D00EE040228DF80420FF
:10A63000012208E05CEA010206D030228DF80420F5
:10A640008DF8050002229046009B83F0080353EA30
:10A650000A030AD15CEA010201D1620705D5302262
:10A660008DF804204FF001087F1E582804D034A034
:10A6700003900EA802900DE036A0F9E7534660461D
:10A68000009AFDF738FE84460398825C0298401ECB
:10A69000029002705CEA0100F0D1029806A9081A43
:10A6A00000F1200A600702D524F4803400E001277D
:10A6B000574502DDA7EB0A0000E0002000EB0A018D
:10A6C000009005984144401A0590E00306D45B468B
:10A6D0002146179A059800F0B3F90544002706E0D3
:10A6E00001A85A46C05D179990476D1C7F1C4745CD
:10A6F000F6DBE0030CD55B462146179A059800F07F
:10A700009FF9054404E030205A46179990476D1C84
:10A710000099481E00900029F5DC08E00298029993
:10A720005A460078491C0291179990476D1CBAF15E
:10A730000001AAF1010AF1DC65E10000092801002D
:10A7400030313233343536373839616263646566A7
:10A750000000000030313233343536373839414269
:10A76000434445460000000000F058F90544761CBB
:10A77000307800287FF4ECAD19B02846BDE8F08FA2
:10A78000620700D4062709F1070222F0070CFCE853
:10A790000223E14603F000485FEA080C02D00FF202
:10A7A000702C0DE05FEA045C02D50FF2682C07E024
:10A7B0005FEAC47C02D00FF2602C01E0AFF2700CB3
:10A7C0004FF0FF3823F00043CDF850C065280CD07F
:10A7D00006DC452809D046281DD047283DD13DE05C
:10A7E000662818D067287ED138E00021112F01DBC0
:10A7F000112000E0781CCDE9000106A90EA8FFF7A2
:10A80000DDFCDDE90F010E9A03910021009207F1B2
:10A81000010A04914DE04FF000400097CDE901108E
:10A8200006A90EA8FFF7CAFCDDE90F0203920E9BF2
:10A8300011990022DDF80CA00093049211B9791C43
:10A8400000EB010AB7EB0A0004D4C0F1FF3007F1B6
:10A85000010A0490AAEB0700019044E0012F00DAFE
:10A8600001270021112F01DD112000E03846CDE93C
:10A87000000106A90EA8FFF7A1FCDDE90F010E9A61
:10A880000391002104910092BA4621070CD4039948
:10A89000514500DA8A46BAF1010F05DD009AAAF1A6
:10A8A0000101515C302908D0B84202DA10F1040FDE
:10A8B00006DA0121CDE9011015E0AAF10101E9E76D
:10A8C000002805DC049901440491AAEB000102E090
:10A8D000411C514500DD8A460499401A401C0190F4
:10A8E0004FF000400290200704D40198504501DB4E
:10A8F000CDF8048000208DF84F0002980DF14F072D
:10A90000B0F1004F25D02B200E9002984FF0020896
:10A9100000280CDA404202902D200E9007E00A2118
:10A920000298FDF7D2FC3031029007F8011DB8F112
:10A930000001A8F10108F2DC02980028EFD1791E8D
:10A940000E980870307800F0200040F0450007F8BD
:10A95000020D12A8C01B00F107081498007800B17E
:10A96000012000EB0A01019801EBE07105984144D8
:10A97000401A401E0590E00306D45B462146179A14
:10A98000059800F05DF805441498007818B15A460F
:10A99000179990476D1CE00324D55B462146179A12
:10A9A000059800F04DF805441CE00498002807DBEA
:10A9B000DDE90301884203DD0098405C179901E05E
:10A9C000179930205A469047049805F10105401C1C
:10A9D00004900198401E019004D12E205A461799E8
:10A9E00090476D1CBAF10001AAF1010ADDDC05E017
:10A9F00017F8010B5A46179990476D1CB8F10001E2
:10AA0000A8F10108F4DC5B462146179A0598ABE6ED
:10AA10002D0000002B000000200000002DE9F04177
:10AA2000044600251E461746880404D405E039462E
:10AA30002020B0476D1C641EF9D52846BDE8F08182
:10AA40002DE9F041044600251E469046C80301D575
:10AA5000302700E02027880404D505E04146384629
:10AA6000B0476D1C641EF9D52846BDE8F081FFFF94
:10AA7000FFFAAAAA48C000020FFFFFFF00000387E9
:10AA8000E0FFFFFFF5555524A000010FFFFFFE80FA
:10AA90000003A7E0FFFFFFFAAAA8909000008FFF35
:10AAA000FFFE40000397E0FFFFFFF5555648880082
:10AAB000004FFFFFFE200003C7E0FFFFFFFAAAA937
:10AAC000268400002FFFFFFE10000387E0FFFFFF3A
:10AAD000F55554928200001FFFFFFE0800038FE02F
:10AAE000FFFFFFFAAAAA4A8100020FFFFFFE04003F
:10AAF0000387E0FFFFFFF55555268080010FFFFF1C
:10AB0000FE020003A7E0FFFFFFFAAAA89280400020
:10AB10008FFFFFFE01000397E0FFFFFFF555564A48
:10AB20008020004FFFFFFE008003C7E0FFFFFFFA19
:10AB3000AAA9268010002FFFFFFE00400387E0FF38
:10AB4000FFFFF55554918008001FFFFFFE00200312
:10AB50008FE0FFFFFFFAAAAA498004000FFFFFFE63
:10AB600000100387E0FFFFFFF55555258002000F19
:10AB7000FFFFFE00080387E0FFFFFFFAAAA891800D
:10AB800001000FFFFFFE00040387E0FFFFFFF55504
:10AB900056498000800FFFFFFE00021387E0FFFF91
:10ABA000FFFAAAA9258000400FFFFFFE00010B87D6
:10ABB000E0FFFFFFF55554918000240FFFFFFE00DA
:10ABC000008787E0C80000000000000000000100CE
:10ABD00000000000000000D00000000000000000A5
:10ABE00000020000000000000000C400000000009F
:10ABF00000000000008000000000000000FFFFFFD8
:10AC0000FAAAAA488000100FFFFFFE00004387E069
:10AC1000FFFFFFF55555248000080FFFFFFE0000E1
:10AC20002387E0C00000000000004000000000009A
:10AC3000010000000000C000000000000020000033
:10AC4000000000008000000000C0000000000000C4
:10AC5000100000000000004000000000C2000000E2
:10AC6000000000000000004000000000000000C1E3
:10AC700000000000000000000000200000000000B4
:10AC80000000C08000000000000000000010000074
:10AC90000000000000C000000000000008000000EC
:10ACA0000000002000000000C000000000000004C0
:10ACB0000000000000001000000000FFFFFFFAAAE3
:10ACC000A8908200000FFFFFFE08000387E0C0008D
:10ACD000000000000001000000000000040000006F
:10ACE00000C0000000000000008000000000000222
:10ACF00000000000FFFFFFF555564B8040000FFF9E
:10AD0000FFFE01000387E0FFFFFFFAAAA9278020CA
:10AD1000000FFFFFFE00800387E0C000000000007E
:10AD200000001000000000000040000000C0000013
:10AD300000000000000800000000000020000000EB
:10AD4000C00000000000000004000000000000102F
:10AD5000000000C000000000000000020000000031
:10AD6000000008000000C00000000000000001001A
:10AD7000000000000004000000C00000000000000F
:10AD80000000800000000000020000007365747580
:10AD90007020646F6E652E0A00484152444641554A
:10ADA0004C543A0A5043203A203078253038580A1B
:10ADB0004C52203A203078253038580A5053523AB5
:10ADC000203078253038580A5230203A2030782503
:10ADD0003038580A5231203A203078253038580A15
:10ADE0005232203A203078253038580A5033203AF1
:10ADF000203078253038580A5231323A20307825C0
:10AE00003038580A00636E743A203078257820284C
:10AE1000257520257520257520257529206F6666E6
:10AE20007365743A2025640A005B4F4F4D5D2040E6
:10AE30002025640A005B415353455254494F4E5DEF
:10AE400020402025733A25640A00610077005345AD
:10AE50004747455200525454005465726D696E6103
:10AE60006C00000088AE0202C853002008000000F9
:10AE70009CA1020290AE0202D05300209C0300006D
:10AE8000ACA1020200000000000000000000000071
:04000005020280096A
:00000001FF
