:020000040202F6
:10800000000000001D800202DFF80CD000F01AF81A
:10801000004800472D8002021454002002B5EFF3FF
:10802000088181F30988054800470000044880471B
:10803000EFF3098181F3088802BD00004580020248
:1080400045950202064C074D06E0E06840F001034A
:1080500094E8070098471034AC42F6D3FFF7D8FFF6
:10806000B8AA0202D8AA020240EA01039B0703D081
:1080700009E008C9121F08C0042AFAD203E011F867
:10808000013B00F8013B521EF9D27047D2B201E029
:1080900000F8012B491EFBD270470022F6E710B50D
:1080A00013460A4604461946FFF7F0FF204610BD66
:1080B0002DE9FE4F804681EA0300C00F0C46009078
:1080C00021F0004123F00045B8EB0200A94105D2A0
:1080D0004046214690461C460B46024623F000408F
:1080E000104347D0270DC7F30A00C3F30A5102908B
:1080F000401A019040286BDAC3F3130040F4801B50
:108100000098924620B10023D2EB030A63EB0B0BDD
:1081100001985946C0F14002504600F026F9064643
:108120000D4650465946019A00F02EF910EB080012
:108130006141002487EA115284EAE7731A4340D070
:10814000009A62B3019A012A4FEA075215DC001B1C
:1081500061EB02014FF0004202EA0752CDE9004212
:10816000001C41F5801132462B4600F02EF903B079
:10817000BDE8F08F40462146F9E7001B61EB0201A4
:10818000001C41F5801300185B412018A2F5001770
:1081900047EB030140EAD570B6196D4111E06D0857
:1081A0004FEA360645EAC0754FEA0752001B61EBFD
:1081B0000201001C41F5801149084FEA3000001906
:1081C000514132462B4603B0BDE8F04F00F0EEB807
:1081D0000098012240000023D0EB020263EBE07321
:1081E000009821464FEAE074B8EB000061EB04010F
:1081F000E9E783F000435BE781F0004158E72DE9B0
:10820000F04D81EA030404F0004B21F000451446D0
:108210004FF0000A23F0004150EA050220D054EA52
:1082200001021DD0C5F30A570246C5F31303C1F37B
:108230001300C1F30A5640F4801543F48013A7EBF2
:108240000608101BD64608F2FD3873EB050002D372
:1082500008F1010801E092185B41B8F1000F03DA60
:1082600000200146BDE8F08D00204FF48011064645
:1082700084460EE0171B73EB050705D3121B63EB57
:10828000050306434CEA010C49084FEA30009218F6
:108290005B4150EA0107EDD152EA030012D082EAB5
:1082A000040083EA0501084305D0101BAB4106D248
:1082B0000122002306E000224FF0004302E06FF0AD
:1082C000010253101AEB06004CEB085110EB0A00A8
:1082D00041EB0B01BDE8F04D00F068B830B50B463E
:1082E000014600202022012409E021FA02F59D42E6
:1082F00005D303FA02F5491B04FA02F52844151EBA
:10830000A2F10102F1DC30BD2DE9F05F054600204D
:1083100092469B4688460646814640241BE02846F6
:1083200041464746224600F041F953465A46C01A94
:10833000914110D311461846224600F016F82D1A26
:1083400067EB01084F4622460120002100F00DF89E
:1083500017EB00094E41201EA4F10104DFDC484662
:1083600031462A464346BDE8F09F202A04DB203AE6
:1083700000FA02F1002070479140C2F1200320FA78
:1083800003F3194390407047202A06DBCB17203AAD
:1083900041FA02F043EAE07306E041FA02F3D0400A
:1083A000C2F12002914008431946704710B5141ECF
:1083B00073F1000408DA401C41F1000192185B419E
:1083C0001A4301D120F0010010BD2DE9F04D924675
:1083D0009B4611B1B1FA81F202E0B0FA80F220328C
:1083E0009046FFF7C2FF04460F4640EA0A0041EA02
:1083F0000B0153465A46084313D0114653EA010075
:1084000019D0C8F14002504600F0D0F805460E469B
:10841000504659464246FFF7A8FF084305D00120C1
:1084200004E020463946BDE8F08D0020054346EAC9
:10843000E0762C4337430A986305E40AA0EB080072
:108440000022FD0A44EA47540A3002D500200146C2
:10845000E9E7010510196941DDE90845001969419D
:10846000BDE8F04DA2E72DE9FE4F81EA030404F0D8
:10847000004421F0004100944FF0000B23F0004332
:1084800050EA01045ED052EA03045BD0C3F30A54FD
:10849000C1F30A552C44A4F2F3340194A0FB025416
:1084A000C1F3130141F48011C3F3130343F48013A8
:1084B00001FB024400FB034E840A970A44EA8154FC
:1084C00047EA8357A4FB076802958D0A05FB0785D9
:1084D0004FEA932C04FB0C542705029D4FEA0658E3
:1084E00047EA1637B5EB08056EEB070C870E920EC0
:1084F00047EA811742EA8312A7FB0201B6EB0B01A0
:1085000064EB00042B0D43EA0C335E1844EB1C5063
:10851000DA465146E7FB0201C5F313044FEA0B3379
:1085200043EA14534FEA0432019C43EA0603A4F1E0
:108530000C040294009CCDE900B4FFF746FF03B0A1
:10854000BDE8F08F00200146F9E7C1F30A52C1F3FC
:10855000130140F2FF3341F480119A4202DA002005
:108560000146704740F233439A42A2F2334202DCA2
:10857000524200F01BB8FFF7F8BE000030B5041EF1
:1085800071F1000404DB4FF00044404264EB010150
:10859000141E73F1000405DB1C464FF000435242E9
:1085A00063EB0403994208BF904230BD202A04DBEC
:1085B000203A21FA02F00021704721FA02F3D0405C
:1085C000C2F12002914008431946704780B586B039
:1085D000DDF820C08DF813000391029201939DF8FD
:1085E00013007F2812D1FFE7029946F24000C4F23F
:1085F000000000EB81009DF804209DF820304FF032
:10860000FF3101F02BFA0020059024E003989DF83B
:10861000131001F08DF900900098B0F1FF3F03DCDA
:10862000FFE70098059016E0029946F24000C4F278
:10863000000000EB810000999DF804209DF8203097
:1086400001F00CFA9DF813009DF80C1000F00AF9E7
:1086500000200590FFE7059806B080BDB0B584B056
:1086600094468E4604460A980999089A8DF80B405C
:108670008DF80AE08DF809C08DF808308DF80720D4
:108680008DF806108DF805009DF80A009DF80B1076
:1086900001EB410C4AF20E61C0F2022111F81C10EC
:1086A0004AF20262C0F2022212F81C204AF2F65389
:1086B000C0F2022313F81C30EC46CCF8003005233E
:1086C000FFF784FF20B1FFE74FF0FF300390C5E0D4
:1086D0009DF809009DF80B1001EB410C4AF20E6168
:1086E000C0F2022101EB4C0149784AF20262C0F269
:1086F000022202EB4C0252784AF2F653C0F20223F5
:1087000003EB4C035B78EC46CCF800300523FFF715
:108710005DFF20B1FFE76FF0010003909EE09DF840
:1087200008009DF80B1001EB410C4AF20E61C0F2FB
:10873000022101EB4C0189784AF20262C0F2022266
:1087400002EB4C0292784AF2F653C0F2022303EB9A
:108750004C039B78EC46CCF800300523FFF736FF3E
:1087600020B1FFE76FF00200039077E09DF807006B
:108770009DF80B1001EB410C4AF20E61C0F2022190
:1087800001EB4C01C9784AF20262C0F2022202EB0C
:108790004C02D2784AF2F653C0F2022303EB4C03A8
:1087A000DB78EC46CCF800300523FFF70FFF20B153
:1087B000FFE76FF00300039050E09DF806009DF87E
:1087C0000B1001EB410C4AF20E61C0F2022101EBE9
:1087D0004C0109794AF20262C0F2022202EB4C0219
:1087E00012794AF2F653C0F2022303EB4C031B79D1
:1087F000EC46CCF800300523FFF7E8FE20B1FFE798
:108800006FF00400039029E09DF805009DF80B101F
:1088100001EB410C4AF20E61C0F2022101EB4C0166
:1088200049794AF20262C0F2022202EB4C0252790A
:108830004AF2F653C0F2022303EB4C035B79EC4699
:10884000CCF800300523FFF7C1FE20B1FFE76FF041
:108850000500039002E000200390FFE7039804B0B6
:10886000B0BD000080B584B08DF80B008DF80A1003
:108870009DF80B009DF80A1001F0B4F901900198E1
:10888000B0F1FF3F03DCFFE701980390BAE09DF8E9
:108890000B00112812DCFFE79DF80B2046F20000C8
:1088A000C4F20000104320F00300019902F003021B
:1088B000C2EBC203072201F0D1F8A0E09DF80B0043
:1088C000142810DCFFE701999DF80B206FF01500CC
:1088D00000EB4200C3B246F21000C4F200000222D4
:1088E00001F0BCF88AE09DF80B0015280AD1FFE7DB
:1088F000019946F21000C4F200000722142301F08F
:10890000ADF87AE09DF80B0016280AD1FFE701992F
:1089100046F21400C4F200000722002301F09EF882
:108920006AE09DF80B001E2810DCFFE701999DF816
:108930000B206FF0260000EB4200C3B246F2140099
:10894000C4F20000022201F089F854E09DF80B0007
:108950001F280AD1FFE7019946F21400C4F2000073
:108960000722172301F07AF844E09DF80B00202835
:108970000AD1FFE7019946F21400C4F20000022276
:108980001E2301F06BF834E09DF80B0021280AD17A
:10899000FFE7019946F21800C4F20000022200230A
:1089A00001F05CF824E09DF80B0023280FDCFFE7C2
:1089B00001999DF80B00C0EBC000EC38C3B246F241
:1089C0001800C4F20000072201F048F80FE00199F6
:1089D0009DF80B206FF0370000EB4200C3B246F267
:1089E0001800C4F20000022201F038F8FFE7FFE7A8
:1089F000FFE7FFE7FFE7FFE7FFE7FFE7FFE700200D
:108A00000390FFE7039804B080BD000080B582B0FA
:108A10008DF807009DF80700012100F025F802B04D
:108A200080BD000080B582B0019000208DF8030069
:108A3000FFE79DF80300182813DCFFE701989DF875
:108A40000310C840C00728B1FFE79DF80300FFF7F7
:108A5000DDFFFFE7FFE79DF8030001308DF803001D
:108A6000E7E702B080BD000080B586B08DF8170042
:108A70008DF816109DF8170001460491182800F291
:108A8000B3810499DFE811F019002A003B004C0083
:108A90005D006E007F009000A100B200CA00E300FC
:108AA000F4000D011E012F014001510162016B0113
:108AB00074017D0186019701A7019DF816100C2015
:108AC000C4F20000152200F0AFFF9DF8161014202C
:108AD000C4F20000122200F0A7FF86E19DF81610F4
:108AE0000C20C4F20000162200F09EFF9DF8161024
:108AF0001420C4F20000122200F096FF75E19DF8E8
:108B000016100C20C4F20000022200F08DFF9DF828
:108B100016101420C4F20000002200F085FF64E16A
:108B20009DF816100C20C4F20000032200F07CFF18
:108B30009DF816101420C4F20000012200F074FF0A
:108B400053E19DF816100C20C4F20000042200F03E
:108B50006BFF9DF816101420C4F20000022200F0F2
:108B600063FF42E19DF816100C20C4F200000122C0
:108B700000F05AFF9DF816101420C4F200001122D4
:108B800000F052FF31E19DF816100C20C4F20000F5
:108B9000052200F049FF9DF816101420C4F20000D1
:108BA0000A2200F041FF20E19DF816100C20C4F2CB
:108BB0000000082200F038FF9DF816101420C4F2BF
:108BC0000000092200F030FF0FE19DF816100C2084
:108BD000C4F20000092200F027FF9DF8161054206F
:108BE000C4F200000C2200F01FFFFEE09DF81610FA
:108BF0000C20C4F200000A2200F016FF9DF81610A7
:108C00001420C4F200000390132200F00DFF03981B
:108C10009DF81610142200F007FFE6E09DF81610EC
:108C20000C20C4F200000B22019200F0FDFE019A1C
:108C30009DF816101420C4F20000029000F0F4FE1B
:108C400002989DF81610102200F0EEFECDE09DF87F
:108C500016100C20C4F200000C2200F0E5FE9DF876
:108C600016100820C4F20000002200F0DDFEBCE077
:108C70009DF816100820C4F200000C2200F0D4FE6B
:108C80009DF816100C20C4F200000D2200F0CCFE5E
:108C90009DF816101420C4F20000062200F0C4FE55
:108CA000A3E09DF816100C20C4F200000E2200F084
:108CB000BBFE9DF816101420C4F20000072200F03D
:108CC000B3FE92E09DF816100C20C4F200000F22B3
:108CD00000F0AAFE9DF816101420C4F200000C2229
:108CE00000F0A2FE81E09DF816100C20C4F20000F6
:108CF000102200F099FE9DF816101420C4F2000016
:108D0000082200F091FE70E09DF816100C20C4F2CD
:108D10000000112200F088FE9DF816101420C4F205
:108D20000000042200F080FE5FE09DF816100C2089
:108D3000C4F20000122200F077FE9DF816101420F5
:108D4000C4F20000052200F06FFE4EE09DF8161000
:108D50000C20C4F20000132200F066FE45E09DF8EE
:108D600016100C20C4F20000142200F05DFE3CE05E
:108D70009DF816100C20C4F20000002200F054FEF2
:108D800033E09DF816100C20C4F20000062200F01B
:108D90004BFE2AE09DF816100C20C4F200001722AA
:108DA00000F042FE9DF816101420C4F200000E22BE
:108DB00000F03AFE19E09DF816108020C4F2000081
:108DC0000090052200F030FE00989DF81610072252
:108DD00000F02AFE09E09DF816100C20C4F20000F5
:108DE000192200F021FE00E0FFE706B080BD000080
:108DF00080B584B040F2A810C4F210000068C00230
:108E0000002818D5FFE74021C4F20001019108684D
:108E1000C0F345000968C1F3C5314843029000F032
:108E200011F80199029AB0FBF2F00968C1F3C71179
:108E30004843039002E000200390FFE7039804B04A
:108E400080BD000083B042F21000C4F21000006840
:108E5000C0F300208DF807009DF8070030B1FFE750
:108E600043F20060C0F26E10029039E040F27C10D4
:108E7000C4F210000068C0F30430014600910F28CE
:108E800028D80099DFE801F0080E26142626261AB5
:108E9000262626262626262041F20020C0F27A0029
:108EA00002901DE042F20040C0F2F400029017E090
:108EB00043F20060C0F26E10029011E044F6000030
:108EC000C0F2E81002900BE046F60040C0F2DC2051
:108ED000029005E049F20000C0F2D0300290FFE7B6
:108EE000029803B07047000080B584B000F01AFC0F
:108EF0000190019818B9FFE70120039056E001980E
:108F0000016842F20800C4F210000722042300F0B6
:108F1000C7FD00200290FFE702980F2819D8FFE74D
:108F20000198029900EB4100808840F2A6418842F6
:108F30000ADBFFE7029942F20000C4F210000422AB
:108F40001C2300F0ADFD04E0FFE702980130029021
:108F5000E2E70298102803D3FFE70220039025E000
:108F600001200290FFE702980F2815D8FFE701982B
:108F7000029900EB4100808C40F29D41884206DB63
:108F8000FFE702980138C0B200F014F804E0FFE7F0
:108F9000029801300290E6E70298102803D3FFE719
:108FA0000320039002E000200390FFE7039804B041
:108FB00080BD000080B582B08DF807009DF80700E5
:108FC00000F00F0142F20000C4F21000042201235D
:108FD00000F066FD02B080BD82B001908DF80310F4
:108FE0009DF803000199086002B0704780B586B013
:108FF00005900491039200F0DBF845F2F431C2F2DF
:1090000000010222CA710120087348738A74039A0E
:109010000A8188710020C4F21600019000F0F6F871
:109020000198059921F07F41322200F0E9F90020F2
:109030000290FFE70298039988420DD2FFE7049857
:109040000299415C0020C4F2160000F0E5F9FFE748
:10905000029801300290EDE7FFE70020C4F216000D
:1090600000F02EF908B1FFE7F7E7FFE7052000F071
:109070003DF8C00708B1FFE7F8E706B080BD000083
:1090800080B586B045F2F431C2F2000100200490B0
:10909000C87101200873487302204881887100203C
:1090A000C4F21600039000F0B1F8039804999022DE
:1090B00000F0A6F9FFE70020C4F2160000F000F966
:1090C00008B1FFE7F7E70020C4F2160002900DF1A7
:1090D0001601019100F01EF901990298013100F08A
:1090E00019F9DDF8160006B080BD000080B584B027
:1090F000039000200190029045F2F431C2F2000189
:10910000C8710873012048734881022088710020CB
:10911000C4F21600009000F079F800980199039AC3
:1091200000F06EF9FFE70020C4F2160000F0C8F866
:1091300008B1FFE7F7E70020C4F2160002A900F02B
:10914000E9F89DF8080004B080BD000080B582B049
:10915000019000F02DF845F2F431C2F20001002038
:10916000C871012008734873022088740720887131
:109170000020C4F21600009000F048F80098019911
:1091800021F07F41202200F03BF9FFE70020C4F2EC
:10919000160000F095F808B1FFE7F7E7FFE70520B4
:1091A000FFF7A4FFC00708B1FFE7F8E702B080BDF2
:1091B00080B582B045F2F431C2F200010020019086
:1091C000C871087301204873072088710020C4F219
:1091D0001600009000F01AF800980199062200F09D
:1091E0000FF9FFE70020C4F2160000F069F808B19B
:1091F000FFE7F7E702B080BD82B001900091009ACE
:109200000199C86B1043C86302B0704780B582B043
:1092100001900091019800F05BF80099487891F86E
:1092200002C0CB780A7940EA4C0040EAC30040EA29
:1092300002204A7940EA8200897C40EA0140019993
:1092400008610099887991F807C00B7B4A7B00067A
:1092500040EA8C50B1F808E04FF2000CCFF6FF7CEA
:109260000CEB0E3C40EA0C00B1F80AC0ACF1010C6A
:1092700040EA0C0040EA437040EA8270497C40EAD0
:10928000C1700199086201980099C97B00F0A6F8A5
:1092900001980099097C00F07DF8019800990978FF
:1092A00000F08AF801980099897B00F029F802B053
:1092B00080BD000081B000900098C06B01B0704785
:1092C00081B000900098406B00F0010001B0704741
:1092D00080B582B001900199086B40F001000863ED
:1092E000FFE70198006BC00708B1FFE7F9E70198B5
:1092F00000F02CF8019800F017F802B080BD0000D3
:1093000082B001900091009A0199886B10438863A4
:1093100002B0704782B0019000910198C06A009934
:10932000086002B07047000081B000900099086B9F
:1093300040F002000863FFE70098006B4008C00798
:1093400008B1FFE7F8E701B07047000081B0009076
:109350000099086B40F004000863FFE70098006B79
:109360008008C00708B1FFE7F8E701B070470000C8
:1093700082B001908DF803100199086D20F00F0064
:1093800008659DF803200199086D1043086502B037
:109390007047000082B001908DF803100199086BAE
:1093A00020F47F4008639DF803200199086B40EA90
:1093B0000220086302B0704782B001908DF803105C
:1093C0000199086C20F0FF0008649DF803200199C2
:1093D000086C1043086402B07047000082B001902E
:1093E0008DF803100199086B20F47F0008639DF845
:1093F00003200199086B40EA0240086302B07047FD
:1094000083B00290019100920198029988620098BD
:109410000299486203B0704782B0019000910098B1
:109420000199C86202B0704786B00590049103921A
:109430000498C0000399B0FBF1F002900298C009B3
:10944000019001990298A0EBC1100290029801309E
:1094500040080090019805994862BDF8060018B9C7
:10946000FFE7019810B9FFE7FFE7FEE701984FF625
:10947000FF71884204D1FFE705990020886207E068
:1094800001990298401A0290009805998862FFE7B6
:109490000598C06A0599C86206B0704781B000900F
:1094A00000988069C0F3401001B0704780B584B067
:1094B0000390029101920399002008630399486484
:1094C0000399886303994860039948620399886205
:1094D0000399C8620398029AD1681269FFF7A4FF42
:1094E000029890F800C041788378C278802000EA22
:1094F000411040EA4C1040EA031040EAC20001F07B
:10950000030140EA41000399C8620298B0F80900DB
:10951000000400BA0399486301980399886302998B
:10952000087991F805C08B79CA79400240EA0C208D
:10953000184440EAC230097A40EA8130039908634E
:1095400004B080BD80B54AF21C60C0F20220F5F77D
:10955000D7FC00F0C3FAFFF7C7FC002080BD000075
:1095600080B582B0019000F085F902B080BD0000A6
:1095700080B582B0019000910198016842684AF676
:109580005220C0F20220F5F773FCFFE7FEE700006F
:1095900070B588B007900691DDF81CC0CDF814C0F6
:1095A000DCF81810DCF81420DCF81C30DCF80000C3
:1095B000DCF804E0DCF80840DCF80C50DCF8106063
:1095C000EC46CCF81060CCF80C50CCF80840CCF845
:1095D00004E0CCF800004AF6DA10C0F20220F5F7F9
:1095E00047FCFFE7FEE7000080B582B001900091E4
:1095F00001994AF64620C0F20220F5F739FCFFE750
:10960000FEE7000080B582B001900091FFE741F2D3
:109610000000C4F20100FFF741FF012801D1FFE77C
:10962000F5E70198017841F20000C4F20100FFF76C
:10963000D3FC002002B080BD80B588B007900691B1
:1096400003208DF8040000228DF8052001208DF8FC
:1096500006008DF807208DF808008DF809008DF8B8
:109660000A008DF80B208DF80C208DF80D008DF878
:109670000E00079804900698059041F20000C4F28D
:10968000010001A9FFF712FF08B080BD80B596B0B8
:10969000159014911392FFE71398012831DBFFE72F
:1096A00000200290FFE7139900200129019007DBB9
:1096B000FFE702990020102938BF01200190FFE741
:1096C0000198C00788B1FFE7149800F08FF9029A5B
:1096D00003A941F822000298013002901398013842
:1096E0001390149804301490DDE7159802998A00BD
:1096F00003A900F0C7FA0299159800EB81001590B4
:10970000CAE716B080BD000080B582B001904FF06E
:10971000FF30009001986946042200F059F902B028
:1097200080BD000080B582B000F00EF830B9FFE7D0
:1097300041F27800C0F20020019002E00020019088
:10974000FFE7019802B080BD80B584B000F056F804
:1097500018B1FFE70020039041E04FF4805000F083
:1097600045F90290029844F24371C4F64E118842C2
:1097700003D0FFE70120039031E041F2040000F044
:1097800035F90290029845F25301C4F64901884226
:1097900003D0FFE70220039021E041F20000C0F275
:1097A00000200190FFF7B0FF01984FF480511E2276
:1097B000FFF76CFF41F27800C0F200204FF48851AF
:1097C0002422FFF763FF41F20810C0F200204FF49B
:1097D00000515022FFF75AFF00200390FFE7039843
:1097E00004B080BD80B582B00190009101A8002135
:1097F000FFF708FF019802B080BD000082B041F27F
:109800000000C0F2002000900098006844F243710C
:10981000C4F64E1188420CD1FFE70098406845F22B
:109820005301C4F64901884203D1FFE701200190AA
:1098300002E000200190FFE7019802B070470000AD
:1098400080B582B001900020C4F21600FFF732FD0F
:1098500000909DF80000C006002807D5FFE7002013
:10986000C4F216001021FFF7C7FCFFE7002002B08A
:1098700080BD000080B5C6B0FFF702FC01464AF685
:109880007920C0F2022000F03DFA0520FFF72EFCFF
:1098900000903520FFF72AFC01901520FFF726FCE9
:1098A0000099019A03464AF68D20C0F2022000F08A
:1098B00029FA4FF47F400290FFF748FC06A8039076
:1098C0004FF4807104913922FEF7E0FB029803996E
:1098D000049AFFF78BFB0020C4F216000321FFF768
:1098E00047FD4AF6A920C0F2022000F00BFA002042
:1098F0000590FFE70598FF2811D8FFE705984FF678
:109900000071C0F20041415C4AF6A420C0F202207E
:1099100000F0F8F9FFE7059801300590EAE74AF60C
:10992000A220C0F2022000F0EDF946B080BD000098
:1099300088B006908DF817100698C11700EB51708B
:10994000C0100490069800F007018020C8400390E2
:10995000002002909DF81700013801909DF8170033
:109960004AF27462C0F20222132110FB012000901F
:1099700000980499405C0399084204D1FFE74FF036
:10998000FF30079020E0FFE70198002819D4FFE797
:1099900001984AF27462C0F20222132100FB0120F6
:1099A000009000980499405C0399084204D0FFE7B6
:1099B000029801300290FFE7FFE70198013801901B
:1099C000E2E702980790FFE7079808B070470000A9
:1099D00080B584B003900291019203980299019A94
:1099E00043F69B33984704B080BD000080B596B025
:1099F00015904AF69211C0F2022102A80190482265
:109A0000FEF732FB40F2C97080470199159800F0CB
:109A100007F8149040F60D008047149816B080BDEA
:109A200001F101010847000083B002908DF8071092
:109A30008DF806209DF806100120884000900298BD
:109A40000068009988439DF807109DF80620914012
:109A500008430299086003B07047000085B0049085
:109A600003918DF80B208DF80A309DF80B10012022
:109A700088400138019001989DF80A108840C04341
:109A8000009004980068009908400399019A1140D9
:109A90009DF80A20914008430499086005B070477A
:109AA00084B0039002918DF807208DF806309DF860
:109AB00007100120884001389DF80610884000906A
:109AC000039800680099884302999DF80620914008
:109AD00008430399086004B07047000080B584B063
:109AE00043F20060C0F26E104FF4E131FFF7A4FDC5
:109AF00000F028F849F26150C0F20220694608607F
:109B00004AF66720C0F202204FF40071002302934E
:109B10001A46FBF771FB014645F20840C2F200000D
:109B2000016000680390FBF775F9029B02460398F9
:109B3000EC464FF0FF31CCF800100121FBF7C8FBD9
:109B400004B080BD80B500F00FF800F00BF8FFF70F
:109B50004FF901464AF66920C0F20220F5F788F96C
:109B600080BD00007047000080B58AB041F200005F
:109B7000C0F22000FEF756FF694608200990886071
:109B80000920059048600B2006900860002008908E
:109B9000072104910A2203920C230793FEF75EFD2E
:109BA00004980321FEF75EFE03980421FEF75AFE97
:109BB00009990846FEF756FE04990598FEF752FEED
:109BC00006980621FEF74EFE07980521FEF74AFE8D
:109BD000089A099849F64101C0F20221F5F796F971
:109BE0000AB080BD85B08DF80F008DF80E109DF87D
:109BF0000F002A2804DBFFE74FF0FF3004903EE01F
:109C00009DF80F004AF27462C0F20222132110FB89
:109C100001200290002001909DF80E000138009074
:109C200002989DF80E10CA08805C01F0070280219E
:109C3000D140084204D1FFE74FF0FF3004901EE00E
:109C4000FFE70098002817D4FFE702980099CA1789
:109C500001EB5272D210805C01F007028021D140EA
:109C6000084204D0FFE7019801300190FFE7FFE7C9
:109C7000009801380090E4E701980490FFE7049809
:109C800005B0704780B588B006900591049206989B
:109C900020F0FF0000F580700390FFE7049850B3B8
:109CA000FFE703980699401A0290029804998842A7
:109CB00003D3FFE704980290FFE706980599029AFC
:109CC00043F6FF4398470190019818B1FFE70198C8
:109CD000079013E0029906980844069002990598A7
:109CE0000844059002990498401A0490039800F5DE
:109CF00080700390D2E700200790FFE7079808B034
:109D000080BD00000FB4054B10B503A9044A0298AA
:109D100000F0DAF810BC5DF814FB0000E5970202D1
:109D2000F053002002E008C8121F08C1002AFAD12F
:109D300070477047002001E001C1121F002AFBD1CB
:109D4000704700002DE9FF5F82B00021DDE904309B
:109D5000020DDDF840B0034318D044F61050A2F2D3
:109D6000FF3242431514119801281FD0A5EB0B00B8
:109D7000401C5FEA000A4FF000064E4FDFF83891B2
:109D8000B046504615D5CAF1000413E011980124DD
:109D90004AA3012801D16FEA0B010298119AC0E988
:109DA0000031C0E9024206B0BDE8F09FCBF10000EF
:109DB000DFE704460021404A491842EB0450CDE950
:109DC000001012E0E00707D032463B4640464946C5
:109DD000FEF749FB8046894632463B461046194607
:109DE000FEF741FB06460F466410002CEAD1DDE980
:109DF0000401DDE90023BAF1000F06DAFEF733FBB8
:109E000042464B46FEF72FFB05E0FEF7F8F94246C7
:109E10004B46FEF7F4F904460E460022284BFEF7A7
:109E2000ADFB03D84FF0FF30014607E00022254B81
:109E300020463146FEF73CF9FEF787FB102409E087
:109E4000002C0ADB0A220023FEF75EFA039B303265
:109E50001A55641E50EA0102F2D1641C039AC4F13F
:109E600011031444119A012A03D0012208430DD191
:109E70000AE0084304D000204FF0110B119072E764
:109E8000A3EB0B056D1E0DE05B4504DD4FF00002FA
:109E900005F1010504E003DA4FF00002A5F1010528
:109EA000002AECD002981199C0E90231C0E90045BE
:109EB00079E70000000014400000F03F300000008F
:109EC0000000F0430000E03F2DE9FF4F95B09B46B6
:109ED0008946064600250FE2252877D1002427462B
:109EE000F84A0121059400E0044316F8013F203BA5
:109EF00001FA03F01042F7D130782A2811D06FF020
:109F00002F033078A0F13002092A16D8059A44F0C0
:109F1000020402EB820203EB42021044761C05901D
:109F2000EFE759F8042B0592002A03DA504244F473
:109F30000054059044F00204761C30782E2816D187
:109F400016F8010F44F004042A280DD06FF02F02F8
:109F50003078A0F13003092B09D807EB870302EB17
:109F60004303C718761CF3E759F8047B761C307856
:109F70006C280FD006DC4C2817D068280DD06A2832
:109F800014D104E0742810D07A280FD10DE044F4E5
:109F900000140AE044F4801401E044F440147278A0
:109FA000824202D104F58014761C761C3078662833
:109FB0000BD013DC582877D009DC002875D0452851
:109FC000F6D04628F4D047281AD19DE118E063283E
:109FD00035D0642879D0652812D195E1702873D0E6
:109FE00008DC6728F1D069286FD06E280DD06F2863
:109FF00006D1B5E073282CD0752875D0782874D098
:10A000005A46179990476D1C75E1C4F30250022817
:10A0100009D003280DD0D9F8001004280DD00D6008
:10A0200009F1040967E1D9F80010EA17C1E9005203
:10A03000F6E7D9F800100D80F2E70D70F0E719F897
:10A04000041B8DF8001000208DF80100EA46012065
:10A0500003E059F804AB4FF0FF3061074FF0000107
:10A0600002D40DE008F101018846B9420FDA8045BB
:10A07000F8DB1AF808100029F4D108E008F1010112
:10A0800088468142FADB1AF808100029F6D10598B3
:10A090005B46A0EB080721463846179A00F094FA71
:10A0A000284400EB080507E04DE029E10DE01AF82F
:10A0B000010B5A4617999047B8F10108F7D25B4651
:10A0C00021463846179A13E142E00A220092C4F36F
:10A0D00002524FF0000A022A08D059F804CB032A92
:10A0E0004FEAEC710AD00DE029E02AE009F10701FE
:10A0F00021F00702F2E802C1914609E00FFA8CFC58
:10A100004FEAEC71042A03D14FFA8CFC4FEAEC7150
:10A11000002907DA0A460021DCF1000C61EB02019C
:10A120002D2202E0220504D52B228DF804200122E5
:10A1300003E0E20701D02022F7E7904659E00A2128
:10A1400002E010220DE010214FF0000A00910BE018
:10A1500010224FF0000A44F004040827009203E0A4
:10A1600008224FF0000A0092C4F30252022A05D0DE
:10A1700059F804CB0021032A08D009E009F10701AE
:10A1800021F00702F2E802C1914605E01FFA8CFCBB
:10A19000042A01D10CF0FF0C4FF00008220728D54B
:10A1A000702806D0009B83F0100353EA0A0305D001
:10A1B0000EE040228DF80420012208E05CEA010252
:10A1C00006D030228DF804208DF80500022290463A
:10A1D000009B83F0080353EA0A030AD15CEA0102F8
:10A1E00001D1620705D530228DF804204FF0010817
:10A1F0007F1E582804D034A003900EA802900DE0D2
:10A2000036A0F9E753466046009AFEF77DF884468B
:10A210000398825C0298401E029002705CEA010082
:10A22000F0D1029806A9081A00F1200A600702D5A9
:10A2300024F4803400E00127574502DDA7EB0A0033
:10A2400000E0002000EB0A01009005984144401A0C
:10A250000590E00306D45B462146179A059800F066
:10A26000B3F90544002706E001A85A46C05D1799D6
:10A2700090476D1C7F1C4745F6DBE0030CD55B4621
:10A280002146179A059800F09FF9054404E0302014
:10A290005A46179990476D1C0099481E0090002956
:10A2A000F5DC08E0029802995A460078491C0291B0
:10A2B000179990476D1CBAF10001AAF1010AF1DC6F
:10A2C00065E100000928010030313233343536377A
:10A2D00038396162636465660000000030313233F2
:10A2E0003435363738394142434445460000000092
:10A2F00000F058F90544761C307800287FF4ECAD66
:10A3000019B02846BDE8F08F620700D4062709F18E
:10A31000070222F0070CFCE80223E14603F00048A4
:10A320005FEA080C02D00FF2702C0DE05FEA045CCB
:10A3300002D50FF2682C07E05FEAC47C02D00FF26E
:10A34000602C01E0AFF2700C4FF0FF3823F00043B7
:10A35000CDF850C065280CD006DC452809D0462829
:10A360001DD047283DD13DE0662818D067287ED112
:10A3700038E00021112F01DB112000E0781CCDE92D
:10A38000000106A90EA8FFF7DDFCDDE90F010E9A1A
:10A3900003910021009207F1010A04914DE04FF072
:10A3A00000400097CDE9011006A90EA8FFF7CAFCEE
:10A3B000DDE90F0203920E9B11990022DDF80CA03B
:10A3C0000093049211B9791C00EB010AB7EB0A0063
:10A3D00004D4C0F1FF3007F1010A0490AAEB070092
:10A3E000019044E0012F00DA01270021112F01DD47
:10A3F000112000E03846CDE9000106A90EA8FFF7BC
:10A40000A1FCDDE90F010E9A039100210491009255
:10A41000BA4621070CD40399514500DA8A46BAF1AD
:10A42000010F05DD009AAAF10101515C302908D025
:10A43000B84202DA10F1040F06DA0121CDE9011069
:10A4400015E0AAF10101E9E7002805DC04990144BF
:10A450000491AAEB000102E0411C514500DD8A464F
:10A460000499401A401C01904FF0004002902007D0
:10A4700004D40198504501DBCDF8048000208DF80C
:10A480004F0002980DF14F07B0F1004F25D02B205F
:10A490000E9002984FF0020800280CDA4042029019
:10A4A0002D200E9007E00A210298FDF717FF3031AA
:10A4B000029007F8011DB8F10001A8F10108F2DCD3
:10A4C00002980028EFD1791E0E980870307800F0BD
:10A4D000200040F0450007F8020D12A8C01B00F153
:10A4E00007081498007800B1012000EB0A010198D8
:10A4F00001EBE07105984144401A401E0590E003CD
:10A5000006D45B462146179A059800F05DF805448D
:10A510001498007818B15A46179990476D1CE003BB
:10A5200024D55B462146179A059800F04DF805445E
:10A530001CE00498002807DBDDE90301884203DD05
:10A540000098405C179901E0179930205A469047CF
:10A55000049805F10105401C04900198401E0190EB
:10A5600004D12E205A46179990476D1CBAF100016C
:10A57000AAF1010ADDDC05E017F8010B5A4617992C
:10A5800090476D1CB8F10001A8F10108F4DC5B46AE
:10A590002146179A0598ABE62D0000002B0000001D
:10A5A000200000002DE9F041044600251E46174614
:10A5B000880404D405E039462020B0476D1C641E91
:10A5C000F9D52846BDE8F0812DE9F0410446002583
:10A5D0001E469046C80301D5302700E02027880496
:10A5E00004D505E041463846B0476D1C641EF9D5D8
:10A5F0002846BDE8F0810A0F1400050A0F140A0F5F
:10A60000000500000001010101010202020256578B
:10A6100058595A5B5C5D60615E5F000005960202FE
:10A62000000000000000000000000000000000002A
:10A6300000000000000000000000000091950202F0
:10A640000000000071950202000000000000000000
:10A6500000000000E9950202000000000000000078
:10A6600000000000000000000000000000000000EA
:10A6700000000000FFFFFFFAAAAA48C000020FFF77
:10A68000FFFF00000387E0FFFFFFF5555524A00002
:10A69000010FFFFFFE800003A7E0FFFFFFFAAAA85B
:10A6A000909000008FFFFFFE40000397E0FFFFFF48
:10A6B000F55556488800004FFFFFFE200003C7E015
:10A6C000FFFFFFFAAAA9268400002FFFFFFE10005B
:10A6D0000387E0FFFFFFF55554928200001FFFFF44
:10A6E000FE0800038FE0FFFFFFFAAAAA4A810002DA
:10A6F0000FFFFFFE04000387E0FFFFFFF55555261F
:10A700008080010FFFFFFE020003A7E0FFFFFFFABA
:10A71000AAA8928040008FFFFFFE01000397E0FF90
:10A72000FFFFF555564A8020004FFFFFFE008003D3
:10A73000C7E0FFFFFFFAAAA9268010002FFFFFFE47
:10A7400000400387E0FFFFFFF55554918008001F8C
:10A75000FFFFFE0020038FE0FFFFFFFAAAAA498057
:10A7600004000FFFFFFE00100387E0FFFFFFF55519
:10A7700055258002000FFFFFFE00080387E0FFFF62
:10A78000FFFAAAA8918001000FFFFFFE00040387D3
:10A79000E0FFFFFFF55556498000800FFFFFFE00E8
:10A7A000021387E0FFFFFFFAAAA9258000400FFFF0
:10A7B000FFFE00010B87E0FFFFFFF555549180007D
:10A7C000240FFFFFFE00008787E0C80000000000A4
:10A7D00000000000010000000000000000D00000A8
:10A7E0000000000000000002000000000000000067
:10A7F000C400000000000000000000800000000015
:10A80000000000FFFFFFFAAAAA488000100FFFFF18
:10A81000FE00004387E0FFFFFFF555552480000848
:10A820000FFFFFFE00002387E0C0000000000000D3
:10A83000400000000000010000000000C000000017
:10A84000000000200000000000008000000000C0A8
:10A8500000000000000010000000000000400000A8
:10A860000000C200000000000000000000400000E6
:10A870000000000000C10000000000000000000017
:10A880002000000000000000C08000000000000068
:10A890000000001000000000000000C000000000E8
:10A8A0000000080000000000002000000000C000C0
:10A8B0000000000000040000000000001000000084
:10A8C00000FFFFFFFAAAA8908200000FFFFFFE081A
:10A8D000000387E0C000000000000001000000004D
:10A8E00000000400000000C0000000000000008024
:10A8F00000000000000200000000FFFFFFF55556B9
:10A900004B8040000FFFFFFE01000387E0FFFFFFC9
:10A91000FAAAA9278020000FFFFFFE00800387E02E
:10A92000C000000000000000100000000000004017
:10A93000000000C00000000000000008000000004F
:10A94000000020000000C000000000000000040023
:10A95000000000000010000000C000000000000027
:10A96000000200000000000008000000C00000001D
:10A97000000000000100000000000004000000C012
:10A980000000000000000000800000000000020045
:10A99000000080B582B001901421C4F2150108684E
:10A9A000022262F3524008600421C4F215010868D3
:10A9B000042262F310200860019800024830002150
:10A9C000C4F21501086040F66D3080471020C4F2D3
:10A9D0001500006802B080BD000048415244464165
:10A9E000554C543A0A5043203A2030782530385894
:10A9F0000A4C52203A203078253038580A505352A9
:10AA00003A203078253038580A5230203A203078B1
:10AA1000253038580A5231203A20307825303858BD
:10AA20000A5232203A203078253038580A503320E4
:10AA30003A203078253038580A5231323A2030786E
:10AA4000253038580A005B4F4F4D5D20402025646B
:10AA50000A005B415353455254494F4E5D204020FC
:10AA600025733A25640A00610020736574757020AF
:10AA7000636C6B202564200A006D616E75666163EE
:10AA800074757265722030782578200A00737461BD
:10AA900074757320307825782030782578203078C8
:10AAA00025780A0025782C20007265616420626197
:10AAB000636B3A2000000000D8AA0202F053002085
:10AAC00018000000249D0202F0AA0202085400208F
:10AAD0000C000000349D0202000000000500000090
:10AAE0000700010201000100010110000000020046
:04000005020280096A
:00000001FF
